:100000000C9463000C948B000C948B000C94A00750
:100010000C94A0070C94A0070C948B000C948B00FC
:100020000C948B000C948B000C948B000C948B0024
:100030000C948B000C948B000C948B000C948B0014
:100040000C9456070C948B000C9424070C94FE0619
:100050000C948B000C948B000C948B000C948B00F4
:100060000C948B000C948B000000000024002700EF
:100070002A0000000008000201000003040700003D
:1000800000000000000000000000230026002900FE
:1000900000000000250028002B00040404040404D0
:1000A0000404020202020202030303030303010227
:1000B00004081020408001020408102001020408F6
:1000C00010201808670B11241FBECFEFD8E0DEBF49
:1000D000CDBF23E0A8ECB1E001C01D92AC32B20765
:1000E000E1F711E0A0E0B1E0EEE8FCE102C005902C
:1000F0000D92A83CB107D9F710E0C2E6D0E004C0E9
:100100002197FE010E94390CC136D107C9F70E9420
:100110008C080C943A0E0C940000CF93DF93FC01F2
:10012000138E128E118E108E178A168A8DE991E029
:10013000958F848F84858631E0F52DEB30E0378B09
:10014000268B2BE931E0318F208F2CE231E0338F89
:10015000228F90916800883008F456C021E08E30DC
:1001600008F420E081E001C0880F2A95EAF7892B86
:100170008093680094852DE630E0983050F02BE6AF
:1001800030E09E3030F02CE630E0963110F030E078
:1001900020E0348B238B292F30E09830B8F581E0B4
:1001A00001C0880F9A95EAF7858B848D958D01970C
:1001B000F1F7828D938D892B21F1A0911502B091D9
:1001C0001602EA17FB07E9F0109751F05396CD910C
:1001D000DC915497988155968C91809589238883DA
:1001E000868D8E7F868F1092140210921302F093E8
:1001F0001602E0931502A389B4898C919589892B05
:100200008C93DF91CF91089584E0B1CF9E3040F47C
:100210002850310981E001C0880F2A95EAF7C4CF40
:100220002E503109F7CFAF92BF92CF92DF92EF926B
:10023000FF920F931F93CF93DF936C017B018B0190
:10024000040F151FEB015E01AE18BF08C017D107E0
:1002500059F06991D601ED91FC910190F081E02D6A
:10026000C6010995892B79F7C501DF91CF911F91BF
:100270000F91FF90EF90DF90CF90BF90AF900895D7
:10028000FC01538D448D252F30E0842F90E0821B9C
:10029000930B541710F0CF96089501970895FC0121
:1002A000918D828D981761F0A28DAE0FBF2FB11D79
:1002B0005D968C91928D9F5F9F73928F90E00895D1
:1002C0008FEF9FEF0895FC01918D828D981731F08B
:1002D000828DE80FF11D858D90E008958FEF9FEFDF
:1002E0000895FC01918D228D892F90E0805C9F4FB5
:1002F000821B91098F739927089587E192E00E94EC
:10030000710121E0892B09F420E0822F089580E01B
:1003100090E0892B29F00E947D0181110C9400004E
:100320000895FC01A48DA80FB92FB11DA35ABF4F8A
:100330002C91848D90E001968F739927848FA689E4
:10034000B7892C93A089B1898C91837080648C9338
:10035000938D848D981306C00288F389E02D8081E7
:100360008F7D80830895EF92FF920F931F93CF9319
:10037000DF93EC0181E0888F9B8D8C8D98131AC0E0
:10038000E889F989808185FF15C09FB7F894EE89C7
:10039000FF896083E889F989808183708064808324
:1003A0009FBF81E090E0DF91CF911F910F91FF906F
:1003B000EF900895F62E0B8D10E00F5F1F4F0F7317
:1003C0001127E02E8C8D8E110CC00FB607FCFACFD2
:1003D000E889F989808185FFF5CFCE010E949101DE
:1003E000F1CFEB8DEC0FFD2FF11DE35AFF4FF082A3
:1003F0009FB7F8940B8FEA89FB8980818062CFCF09
:10040000CF93DF93EC01888D8823B9F0AA89BB894B
:10041000E889F9898C9185FD03C0808186FD0DC036
:100420000FB607FCF7CF8C9185FFF2CF808185FF57
:10043000EDCFCE010E949101E9CFDF91CF910895D8
:10044000833081F028F4813099F08230A9F008954A
:100450008730A9F08830C9F08430B1F480918000F1
:100460008F7D03C0809180008F77809380000895F6
:1004700084B58F7784BD089584B58F7DFBCF80913F
:10048000B0008F778093B00008958091B0008F7D89
:10049000F9CFCF93DF93282F30E0F901EE58FF4FCB
:1004A0008491F901E255FF4FD491F901E656FF4FCF
:1004B000C491CC23A1F081110E942002EC2FF0E026
:1004C000EE0FFF1FEA57FF4FA591B491EC91ED237A
:1004D00081E090E009F480E0DF91CF91089580E021
:1004E00090E0FACF1F93CF93DF93282F30E0F901EC
:1004F000EE58FF4F8491F901E255FF4FD491F90175
:10050000E656FF4FC491CC23A9F0162F81110E940B
:100510002002EC2FF0E0EE0FFF1FE057FF4FA591F8
:10052000B4918FB7F894EC91111108C0D095DE23E7
:10053000DC938FBFDF91CF911F910895DE2BF8CF11
:10054000CF93DF9390E0FC01E255FF4F2491865654
:100550009F4FFC0184918823D1F090E0880F991F70
:10056000FC01E859FF4FA591B491FC01E057FF4F02
:10057000C591D49161110EC09FB7F8948C91E22F70
:10058000E0958E238C932881E223E8839FBFDF913F
:10059000CF9108958FB7F894EC91E22BEC938FBF35
:1005A000F6CF0F931F93CF93DF93EC01162F042FF9
:1005B0001B821A8288EE93E0A0E0B0E08C839D83DA
:1005C000AE83BF838AE091E0998388831F8A1E8A65
:1005D000198E188E1B8E1A8E1D8E1C8E6E8D6E7F40
:1005E0006D7F6E8F6695617081E06827842F0E9411
:1005F000720261E0802F0E94A002802F90E0FC0137
:10060000E255FF4FE491E88BFC01E656FF4FE49181
:10061000F0E0EE0FFF1FE057FF4F859194919A8B0A
:10062000898B60E0812F0E94A0028E8D81FD04C025
:1006300061E0812F0E9472021C87812F90E0FC01F3
:10064000E255FF4FE491ED87FC01E656FF4FE49140
:10065000F0E0EE0FFF1FEA57FF4F859194919F87BF
:100660008E87DF91CF911F910F9108953FB7F89436
:1006700080910D0290910E02A0910F02B091100294
:1006800026B5A89B05C02F3F19F00196A11DB11DED
:100690003FBFBA2FA92F982F8827BC01CD01620F29
:1006A000711D811D911D42E0660F771F881F991FE4
:1006B0004A95D1F708958F929F92AF92BF92CF92B1
:1006C000DF92EF92FF924B015C010E9436036B01B7
:1006D0007C010E9436036C197D098E099F09683ED2
:1006E000734081059105A8F321E0821A9108A108C1
:1006F000B10888EEC80E83E0D81EE11CF11C8114FD
:100700009104A104B10429F7FF90EF90DF90CF90FE
:10071000BF90AF909F908F900895209115023091D7
:1007200016022817390771F4909113028091140270
:10073000981741F0E0911302F0E0E853FE4F8081FA
:1007400090E008958FEF9FEF08950895EF92FF9244
:100750000F931F93CF93DF93DC015C96ED90FC9099
:100760005D97E114F10479F481E090E013969C9395
:100770008E93129790E080E0DF91CF911F910F91BF
:10078000FF90EF9008955196ED91FC9152975096FD
:100790008C915097982F90950FB75E962C915E97FD
:1007A000122F127021FD6095F8942081112319F108
:1007B000282B2083E7012197F1F728E0462F50E00E
:1007C000308160FF1AC0382B3083E7012197F1F7A1
:1007D000BA0175956795215089F7112381F08081C1
:1007E000892380830FBF5C968D919C910197F1F7CF
:1007F00081E090E0C1CF2923DCCF3923E5CF908180
:10080000892BEFCF20911502309116022817390756
:1008100071F4809114022091130290E0805C9F4F4C
:10082000821B910960E470E00E94EF0B089590E054
:1008300080E008952091150230911602281739079B
:10084000B9F49091130280911402981789F0E09105
:100850001302F0E0E853FE4F80812091130230E054
:100860002F5F3F4F2F7333272093130290E008959B
:100870008FEF9FEF0895FC018AE091E091838083E0
:100880008091150290911602E817F90759F4A3898F
:10089000B4899C918589809589238C931092160246
:1008A000109215020895089590E080E00895CF9386
:1008B000DF93EC0160E08E810E94720261E08E8124
:1008C0000E94720260E08E810E9472028BE891E0C9
:1008D0000197F1F7DF91CF910895CF92DF92EF92D8
:1008E000FF920F931F93CF93DF936C017C0187E0FE
:1008F000E80EF11CD0E0C0E0062F10E0B8010C2E8D
:1009000002C0759567950A94E2F76170F7018191CD
:100910007F010E9472022196C430D10579F7C60189
:10092000DF91CF911F910F91FF90EF90DF90CF90CB
:100930000C945704CF92DF92EF92FF920F931F9384
:10094000CF93DF93EC01F62E642F8C810E9472020C
:100950008D818F3F19F060E00E9472020F2D10E030
:100960008F8584FF25C06E0187E0C80ED11CF12C55
:10097000E12CB8010E2C02C0759567950A94E2F738
:100980006170F60181916F010E947202FFEFEF1A10
:10099000FF0A88E0E816F10461F7CE01DF91CF91FC
:1009A0001F910F91FF90EF90DF90CF900C94570420
:1009B000B80184E0759567958A95E1F7CE010E94AC
:1009C0006D046F2DCE01DF91CF911F910F91FF909C
:1009D000EF90DF90CF900C946D0440E0682F80E1A1
:1009E00093E00C949A04CF93DF93823029F4909192
:1009F0001F03986090931F03809323031092240396
:100A000080E48093250380E18093260380E5809332
:100A1000270361E0809114030E94A00280911503D6
:100A20008F3F19F061E00E94A00261E080911603FF
:100A30000E94A002C0E1D3E09E012051334080918A
:100A40001F0384FD0BC084E090E02196281739072E
:100A500044F461E08E810E94A002EECF88E090E035
:100A6000F4CF8BE39DE00197F1F760E080911403F0
:100A70000E94720260E0809116030E9472028091CF
:100A800015038F3F19F060E00E94720280911F03EE
:100A900084FD39C063E080E193E00E946D04CBE403
:100AA000D6E4CE010197F1F763E080E193E00E9484
:100AB0006D042197F1F763E080E193E00E946D04FB
:100AC00083E592E00197F1F762E080E193E00E9414
:100AD0006D0480911F0380620E94ED0484E0809386
:100AE00020038CE00E94ED0481E00E94ED048BE382
:100AF0009FE10197F1F782E08093210386E0DF9187
:100B0000CF910C94ED0480620E94ED048BE496E496
:100B10000197F1F780911F0380620E94ED0483E545
:100B200092E00197F1F780911F0380620E94ED042B
:100B3000D0CF90912303691710F06FEF690FE62F64
:100B4000F0E0E05FFC4F9489890F80680C94ED041D
:100B500041E00E949A0481E090E00895FB01019039
:100B60000020E9F73197AF01461B570BDC01ED91EF
:100B7000FC910280F381E02D09940F931F93CF9392
:100B8000DF93EC010E94AE058C0166E371E0CE01BB
:100B90000E94AE05800F911FDF91CF911F910F91A1
:100BA00008950F931F93CF93DF93EC01FB014481D2
:100BB000558160817181E881F9810280F381E02DA6
:100BC00009958C0166E371E0CE010E94AE05800FAD
:100BD000911FDF91CF911F910F910895FC018081AA
:100BE0009181009711F00C94DB0C0895FC01248195
:100BF0003581232B39F421E0FB018081882349F0E2
:100C000020E007C0808191810E942A0E21E0892B7B
:100C1000B9F7822F0895CF93DF93EC01A881B981B2
:100C2000EB01E881F9811097F1F03097B1F4EC0114
:100C30008C819D81892BC9F08C9190E00BC0DB01E8
:100C400014968D919C91892B81F0808190E09195F3
:100C500081959109DF91CF910895BF01CD01DF9179
:100C6000CF910C942A0E309751F790E080E0F2CFAC
:100C70000F931F93CF93DF93EC01888199810097A5
:100C800059F02A813B812617370730F081E0DF9148
:100C9000CF911F910F9108958B016F5F7F4F0E943D
:100CA000640D009759F0998388831B830A832C81F4
:100CB0003D81232B59F7FC011082E8CF80E0E7CF7C
:100CC000EF92FF920F931F93CF93DF93EC017B0181
:100CD000198218821B821A821D821C82FB010190DC
:100CE0000020E9F731978F01061B170BB8010E940E
:100CF000380628813981811113C02115310519F079
:100D0000C9010E94DB0C198218821D821C821B8281
:100D10001A82DF91CF911F910F91FF90EF9008956C
:100D20001D830C83B701C901DF91CF911F910F91F2
:100D3000FF90EF900C94330EEF92FF920F931F935E
:100D4000CF93DF93EC017B01FB0101900020E9F7D9
:100D500031978F01061B170BB8010E9438062881B6
:100D60003981811113C02115310519F0C9010E9483
:100D7000DB0C198218821D821C821B821A82DF9171
:100D8000CF911F910F91FF90EF9008951D830C83D9
:100D9000B701C901DF91CF911F910F91FF90EF90A3
:100DA0000C94330E0F931F93CF93DF93CDB7DEB721
:100DB00062970FB6F894DEBF0FBECDBF8C01CB019A
:100DC000F8011182108213821282158214824AE085
:100DD000BE016F5F7F4F0E94830BBE016F5F7F4F2D
:100DE000C8010E949C0662960FB6F894DEBF0FBE43
:100DF000CDBFDF91CF911F910F9108951F920F9258
:100E00000FB60F9211242F933F934F935F936F93DD
:100E10007F938F939F93AF93BF93EF93FF9387E15C
:100E200092E00E949101FF91EF91BF91AF919F914C
:100E30008F917F916F915F914F913F912F910F9083
:100E40000FBE0F901F9018951F920F920FB60F9222
:100E500011242F938F939F93EF93FF93E091270299
:100E6000F09128028081E0912D02F0912E0282FD06
:100E70001BC09081809130028F5F8F73209131026F
:100E8000821741F0E0913002F0E0E95EFD4F958F6E
:100E900080933002FF91EF919F918F912F910F904E
:100EA0000FBE0F901F9018958081F4CF1F920F9264
:100EB0000FB60F9211242F933F938F939F93AF936D
:100EC000BF938091090290910A02A0910B02B09108
:100ED0000C023091080223E0230F2D3758F50196BC
:100EE000A11DB11D209308028093090290930A026C
:100EF000A0930B02B0930C0280910D0290910E0210
:100F0000A0910F02B09110020196A11DB11D809316
:100F10000D0290930E02A0930F02B0931002BF91A6
:100F2000AF919F918F913F912F910F900FBE0F9096
:100F30001F90189526E8230F0296A11DB11DD2CF50
:100F40001F920F920FB60F9211242F933F934F933E
:100F50005F936F937F938F939F93AF93BF93EF9321
:100F6000FF93E0911502F0911602309749F0A685A3
:100F7000B7858585968D91FF14C09C918923A1F436
:100F8000FF91EF91BF91AF919F918F917F916F9161
:100F90005F914F913F912F910F900FBE0F901F9037
:100FA00018959C91892361F7A389B4899C918589BF
:100FB000809589238C93868997890197F1F7608DB5
:100FC000718DA685B785558538E020E0CB01019766
:100FD000F1F7822F90E095958795282F4C91452326
:100FE00009F02068315091F7868D81FD2095809120
:100FF000140290E001968F739927309113023817ED
:1010000099F0A0911402B0E0A853BE4F2C938093A6
:101010001402828D938D0197F1F7A389B4898C9185
:101020009589892B8C93ACCF868D8160868FF1CF8B
:10103000E7E1F2E01382128288EE93E0A0E0B0E0F4
:1010400084839583A683B7838CE191E09183808329
:1010500085EC90E09587848784EC90E0978786877D
:1010600080EC90E0918B808B81EC90E0938B828B75
:1010700082EC90E0958B848B86EC90E0978B868B4E
:10108000118E128E138E148EE0E1F3E01382128221
:101090008EE291E0918380838DE084838FEF85835E
:1010A0008CE086838BE087838AE0808789E0818774
:1010B00088E082871386148615861686178681E057
:1010C0000E94F30446E065E081EF92E00E94D102C5
:1010D00043E064E082ED92E00E94D10269E371E0B6
:1010E0008CEC92E00E94600660E471E086EC92E095
:1010F0000E94600663E471E080EC92E00E9460066A
:1011000060E471E08AEB92E00E94600668E371E0BF
:1011100084EB92E00C946006CF93DF93CDB7DEB7FB
:10112000A1970FB6F894DEBF0FBECDBF789484B5FB
:10113000826084BD84B5816084BD85B5826085BDD3
:1011400085B5816085BD80916E00816080936E0061
:101150001092810080918100826080938100809153
:101160008100816080938100809180008160809304
:1011700080008091B10084608093B1008091B000C4
:1011800081608093B00080917A00846080937A00BF
:1011900080917A00826080937A0080917A008160E9
:1011A00080937A0080917A00806880937A00109210
:1011B000C10061E087E00E94A00260E082E00E943E
:1011C000A00261E087E00E94A00261E083E10E944A
:1011D000A00261E082E10E94A00261E081E10E9440
:1011E000A00260E08EE00E94A00260E08FE00E941A
:1011F000A002E0912702F091280282E08083E09132
:101200002302F09124021082E0912502F09126023F
:101210008FEC808310922F02E0912B02F0912C0230
:1012200086E08083E0912902F0912A02808180612A
:101230008083E0912902F0912A0280818860808376
:10124000E0912902F0912A02808180688083E091F8
:101250002902F0912A0280818F7D80836AE471E007
:1012600087E192E00E94AE0560E671E087E192E0DE
:101270000E94BD0566E371E087E192E00E94AE0541
:1012800082ED92E00E948D0081EF92E00E948D003D
:101290006AE471E082ED92E00E94AE0560E671E0E2
:1012A00082ED92E00E94BD0564E871E082ED92E07B
:1012B0000E94BD056AE471E081EF92E00E94AE05F4
:1012C00060E671E081EF92E00E94BD0564E871E0A4
:1012D00081EF92E00E94BD0582E00E94F30460E08D
:1012E00080E00E94990565E671E080E193E00E944C
:1012F000AE0561E080E00E94990565E771E080E15C
:1013000093E00E94AE0560ED77E080E090E00E94FF
:101310005B0381E00E94ED048BE39FE10197F1F70D
:101320008AE0882E912CA12CB12C00E010E066E818
:1013300071E081EF92E00E94BD0566EC72E081EF02
:1013400092E00E94D10567E971E082ED92E00E948F
:10135000AE056AEB72E082ED92E00E94D10568EE84
:1013600073E080E090E00E945B0382ED92E00E94D7
:101370000204181619060CF074C082ED92E00E9467
:101380001A04BC01CE0101960E94D20669E371E005
:10139000CE0101960E949C06CE0101960E94EE05A8
:1013A00082ED92E00E941A046C01990FEE08FF088A
:1013B000F7FE41C06DE282ED92E00E94A603222773
:1013C0003327A9012C193D094E095F0919A2CE0145
:1013D00081967C01CA01B901A50194010E94030C08
:1013E000605DF70162937F012115310541055105CB
:1013F00089F7E114F10429F0B70182ED92E00E942F
:10140000AE0566E371E082ED92E00E94AE0582EDEA
:1014100092E00E941A04BC01CE0101960E94D206FD
:10142000CE0101960E94EE0567EA71E086EC92E03B
:101430000E949C069ACFA701960119A2CE0181961F
:101440007C01CA01B901A50194010E94030C605DF1
:10145000F70162937F01211531054105510589F797
:10146000C8CF82ED92E00E94020418161906A4F477
:1014700081EF92E00E941A04BC01CE0101960E9405
:10148000D206CE0101960E94EE0567EA71E08AEB72
:1014900092E00E949C06E5CF82E00E9449020197FB
:1014A00009F06CC08EE00E944902019709F066C005
:1014B0008FE00E9449027C01019709F05FC0809192
:1014C000110290911202892B09F058C067EA71E06D
:1014D0008AEB92E00E949C0667EA71E086EC92E05B
:1014E0000E949C0661E082E10E94720261E081E15B
:1014F0000E94720261E083E10E94720264E670E081
:1015000080E090E00E945B0360E082E10E94720252
:1015100060E081E10E94720260E083E10E94720259
:1015200068EE73E080E090E00E945B0361E082E19E
:101530000E94720261E081E10E94720261E083E137
:101540000E94720268EE73E080E090E00E945B030C
:1015500060E082E10E94720260E081E10E9472021A
:1015600060E083E10E94720268EE73E080E090E048
:101570000E945B03F0921202E092110282E00E944C
:101580004902892B01F58EE00E944902892BD9F48A
:101590008FE00E944902892BB1F480911102909151
:1015A0001202019781F460E471E08AEB92E00E94FC
:1015B0009C0660E471E086EC92E00E949C0610922A
:1015C00012021092110267EA71E08AEB92E00E9427
:1015D000F605882321F167EA71E086EC92E00E942B
:1015E000F6058823E1F08091110290911202019793
:1015F000B1F46AEA71E084EB92E00E949C0661E03B
:1016000087E00E94720261E082E10E94720261E062
:1016100081E10E94720261E083E10E94720260E453
:1016200071E08AEB92E00E94F605882321F160E4E4
:1016300071E086EC92E00E94F6058823E1F080914B
:10164000110290911202892BB1F469EB71E084EBE5
:1016500092E00E949C0660E087E00E94720260E0D7
:1016600082E10E94720260E081E10E94720260E009
:1016700083E10E94720260E080E00E94990565E6C5
:1016800071E080E193E00E94AE0561E081E00E949C
:10169000990564EB72E080E193E00E94D10560EC73
:1016A00071E080E193E00E94BD056AEB72E080E1A9
:1016B00093E00E94D1050115110509F438CE0E946E
:1016C0007D01882309F433CE0E94000030CE84EBE4
:1016D00092E00E94EE058AEB92E00E94EE0580EC1B
:1016E00092E00E94EE0586EC92E00E94EE058CEC02
:1016F00092E00E94EE0582ED92E00E943B0481EFB1
:1017000092E00C943B04BB274A3031F4992322F435
:10171000BDE2909581959F4F0C948F0BBB27FB01E9
:101720005527AA27880F991FAA1FA41710F0A41BDA
:1017300083955051B9F7A05DAA3308F0A95DA19334
:10174000009779F7B111B1931192CB010C94A80BCA
:10175000DC01FC01672F71917723E1F7329704C018
:101760007C916D9370836291AE17BF07C8F30895A3
:101770002F923F924F925F926F927F928F929F92A1
:10178000AF92BF92CF92DF92EF92FF920F931F938F
:10179000CF93DF93CDB7DEB7CA1BDB0B0FB6F89440
:1017A000DEBF0FBECDBF09942A88398848885F8480
:1017B0006E847D848C849B84AA84B984C884DF80F1
:1017C000EE80FD800C811B81AA81B981CE0FD11DD5
:1017D0000FB6F894DEBF0FBECDBFED01089597FBA5
:1017E000072E16F4009407D077FD09D00E94250C2F
:1017F00007FC05D03EF4909581959F4F0895709514
:1018000061957F4F0895A1E21A2EAA1BBB1BFD0113
:101810000DC0AA1FBB1FEE1FFF1FA217B307E407CF
:10182000F50720F0A21BB30BE40BF50B661F771F27
:10183000881F991F1A9469F7609570958095909507
:101840009B01AC01BD01CF010895AA1BBB1B51E157
:1018500007C0AA1FBB1FA617B70710F0A61BB70B20
:10186000881F991F5A95A9F780959095BC01CD01C5
:101870000895EE0FFF1F0590F491E02D09940F934A
:101880001F93CF93DF938230910510F482E090E0B4
:10189000E0912A03F0912B0330E020E0B0E0A0E0DB
:1018A000309799F42115310509F44AC0281B390BEA
:1018B00024303105D8F58A819B816115710589F144
:1018C000FB0193838283FE0111C04081518102811B
:1018D000138148175907E0F04817590799F41097F2
:1018E00061F012960C93129713961C933296CF01C7
:1018F000DF91CF911F910F91089500932A031093C8
:101900002B03F4CF2115310551F04217530738F05E
:10191000A901DB019A01BD01DF01F801C1CFEF018F
:10192000F9CF90932B0380932A03CDCFFE01E20FD2
:10193000F31F819391932250310939832883D7CFA4
:101940002091280330912903232B41F42091020197
:101950003091030130932903209328032091000143
:10196000309101012115310541F42DB73EB7409169
:10197000040150910501241B350BE0912803F091DF
:101980002903E217F307A0F42E1B3F0B2817390792
:1019900078F0AC014E5F5F4F2417350748F04E0FCB
:1019A0005F1F5093290340932803819391939FCF06
:1019B000F0E0E0E09CCFCF93DF930097E9F0FC01EB
:1019C000329713821282A0912A03B0912B03ED016A
:1019D00030E020E01097A1F420813181820F931F25
:1019E00020912803309129032817390709F061C095
:1019F000F0932903E0932803DF91CF910895EA0142
:101A0000CE17DF07E8F54A815B819E01411551053C
:101A1000B1F7E901FB83EA8349915991C40FD51FBE
:101A2000EC17FD0761F4808191810296840F951F68
:101A3000E90199838883828193819B838A83F0E083
:101A4000E0E012968D919C9113970097B9F52D9136
:101A50003C911197CD010296820F931F209128038C
:101A6000309129032817390739F6309751F510922C
:101A70002B0310922A03B0932903A0932803BCCF11
:101A8000D383C28340815181840F951FC817D90722
:101A900061F44E5F5F4F88819981480F591F5183D0
:101AA00040838A819B81938382832115310509F0CC
:101AB000B0CFF0932B03E0932A039ECFFD01DC010E
:101AC000C0CF13821282D7CFB0E0A0E0EAE6FDE0FB
:101AD0000C94BA0B8C01009751F4CB010E943F0C7F
:101AE0008C01C801CDB7DEB7E0E10C94D60BFC0148
:101AF000E60FF71F9C0122503109E217F30708F4A3
:101B00009DC0D901CD91DC911197C617D70798F0E8
:101B1000C530D10530F3CE0104978617970708F337
:101B2000C61BD70B2297C193D1936D937C93CF01A2
:101B30000E94DB0CD6CF5B01AC1ABD0A4C018C0EA7
:101B40009D1EA0912A03B0912B03512C412CF12C06
:101B5000E12C109731F58091280390912903881585
:101B6000990509F05CC04616570608F058C08091E8
:101B7000000190910101009741F48DB79EB740910B
:101B8000040150910501841B950BE817F90708F033
:101B900055C0F0932903E0932803F9017183608312
:101BA000A0CF8D919C91119712966C9012971396DD
:101BB0007C901397A815B90559F56C0142E0C40E45
:101BC000D11CCA14DB0420F1AC014A195B09DA010B
:101BD0001296159780F06282738251834083D901F7
:101BE0006D937C93E114F10471F0D7011396FC938B
:101BF000EE93129776CF22968C0F9D1FF901918359
:101C00008083F301EFCFF0932B03E0932A0369CF96
:101C10004816590608F42C017D01D3019ACFCB0157
:101C20000E943F0C7C01009749F0AE01B8010E9470
:101C3000210EC8010E94DB0C870153CF10E000E0A9
:101C400050CFFB01DC0102C001900D924150504089
:101C5000D8F70895FB01DC018D91019080190110E6
:101C6000D9F3990B0895FB01DC0101900D9200203E
:101C7000E1F7089510E0C2E6D0E004C0FE010E9442
:0E1C8000390C2196C336D107C9F7F894FFCF6F
:101C8E0000002C03800000000000A6031301540482
:101C9E00A50302041A048D0300000000B301130112
:101CAE004001000271014F01630100000000A80510
:101CBE001301540453040D0A0072663230323000A0
:101CCE004E4F0070663230323000736D6172742088
:101CDE0076656869636C652073797374656D200031
:101CEE005465737400736D61727420656E67207332
:101CFE0074617274002020202053797374656D20F6
:101D0E0020202020200066696E67657220696D6153
:101D1E0067652E2E2E2E007363616E6520636F64D1
:101D2E00652E2E2E2E2E004F4B00656E67696E654A
:101D3E002073746172746564006F66662E2E2E00B9
:081D4E00206772616E74000051
:00000001FF
