:100000000C94D5000C94FD000C94FD000C94D005CC
:100010000C94D0050C94D0050C94FD000C94FD00BC
:100020000C94FD000C94FD000C94FD000C94FD005C
:100030000C94FD000C94FD000C94FD000C94FD004C
:100040000C9486050C94FD000C9454050C942E051C
:100050000C94FD000C94FD000C94FD000C94FD002C
:100060000C94FD000C94FD0000000008000201004B
:100070000003040700000000000000006279204D2A
:10008000696B616C20486172740054657374696EA9
:10009000672054696E794750532B2B206C6962722C
:1000A00061727920762E2000412073696D706C6535
:1000B0002064656D6F6E7374726174696F6E206F0A
:1000C000662054696E794750532B2B2077697468EA
:1000D00020616E20617474616368656420475053C9
:1000E000206D6F64756C650044657669636545785D
:1000F000616D706C652E696E6F00494E56414C49BA
:10010000440030002E0030003A0030003A00300049
:100110002000494E56414C4944002F002F0020201A
:10012000446174652F54696D653A2000494E56410B
:100130004C4944002C004C6F636174696F6E3A2027
:10014000004E6F2047505320646574656374656486
:100150003A20636865636B20776972696E672E0069
:1001600000000000230026002900000000002400F9
:1001700027002A0000000000250028002B000404AE
:10018000040404040404020202020202030303033F
:10019000030301020408102040800102040810201B
:1001A0000102040810209406020E11241FBECFEF96
:1001B000D8E0DEBFCDBF11E0A0E0B1E0E8E8F2E2B8
:1001C00002C005900D92A235B107D9F723E0A2E550
:1001D000B1E001C01D92A830B207E1F710E0C4ED14
:1001E000D0E004C02197FE010E94DC10C33DD1077E
:1001F000C9F70E9444080C9437110C940000AF9288
:10020000BF92CF92DF92EF92FF920F931F93CF9303
:10021000DF936C017B018B01040F151FEB015E0165
:10022000AE18BF08C017D10759F06991D601ED91FA
:10023000FC910190F081E02DC6010995892B79F799
:10024000C501DF91CF911F910F91FF90EF90DF904B
:10025000CF90BF90AF900895FC01538D448D252F12
:1002600030E0842F90E0821B930B541710F0CF9650
:10027000089501970895FC01918D828D981761F082
:10028000A28DAE0FBF2FB11D5D968C91928D9F5F99
:100290009F73928F90E008958FEF9FEF0895FC0178
:1002A000918D828D981731F0828DE80FF11D858D2B
:1002B00090E008958FEF9FEF0895FC01918D228DBE
:1002C000892F90E0805C9F4F821B91098F73992743
:1002D00008958FE991E00E945D0121E0892B09F4E6
:1002E00020E0822F089580E090E0892B29F00E9481
:1002F000690181110C9400000895FC01A48DA80FE0
:10030000B92FB11DA35ABF4F2C91848D90E0019657
:100310008F739927848FA689B7892C93A089B18977
:100320008C91837080648C93938D848D981306C018
:100330000288F389E02D80818F7D80830895EF927C
:10034000FF920F931F93CF93DF93EC0181E0888F8F
:100350009B8D8C8D98131AC0E889F989808185FF5F
:1003600015C09FB7F894EE89FF896083E889F98901
:1003700080818370806480839FBF81E090E0DF9103
:10038000CF911F910F91FF90EF900895F62E0B8D56
:1003900010E00F5F1F4F0F731127E02E8C8D8E1111
:1003A0000CC00FB607FCFACFE889F989808185FF78
:1003B000F5CFCE010E947D01F1CFEB8DEC0FFD2F2B
:1003C000F11DE35AFF4FF0829FB7F8940B8FEA8933
:1003D000FB8980818062CFCF0F931F93CF93DF93F0
:1003E0008C01D0E0C0E0F801EC0FFD1F64916623A2
:1003F00041F08FE991E00E949F01892B11F0219635
:10040000F2CFCE01DF91CF911F910F910895CF933D
:10041000DF93EC01888D8823B9F0AA89BB89E8892C
:10042000F9898C9185FD03C0808186FD0DC00FB6D2
:1004300007FCF7CF8C9185FFF2CF808185FFEDCF50
:10044000CE010E947D01E9CFDF91CF9108952FB7B2
:10045000F894609197017091980180919901909121
:100460009A012FBF089520919D0130919E01281778
:10047000390771F490919B0180919C01981741F08C
:10048000E0919B01F0E0EE5AFE4F808190E00895EC
:100490008FEF9FEF08950895EF92FF920F931F93B0
:1004A000CF93DF93DC015C96ED90FC905D97E114B7
:1004B000F10479F481E090E013969C938E93129767
:1004C00090E080E0DF91CF911F910F91FF90EF902E
:1004D00008955196ED91FC91529750968C915097BA
:1004E000982F90950FB75E962C915E97122F1270F1
:1004F00021FD6095F8942081112319F1282B208388
:10050000E7012197F1F728E0462F50E0308160FFA6
:100510001AC0382B3083E7012197F1F7BA0175959E
:100520006795215089F7112381F080818923808389
:100530000FBF5C968D919C910197F1F781E090E05F
:10054000C1CF2923DCCF3923E5CF9081892BEFCF91
:1005500020919D0130919E012817390771F48091F7
:100560009C0120919B0190E0805C9F4F821B910930
:1005700060E470E00E94A610089590E080E0089585
:1005800020919D0130919E0128173907B9F490916F
:100590009B0180919C01981789F0E0919B01F0E00C
:1005A000EE5AFE4F808120919B0130E02F5F3F4F3C
:1005B0002F73332720939B0190E008958FEF9FEFD7
:1005C000089590E080E00895CF93DF93EC018A8551
:1005D0009B85AC85BD858E839F83A887B9870E9444
:1005E00027026A837B838C839D8381E08983888350
:1005F000DF91CF910895CF93DF93EC018E819F819E
:10060000A885B9858A839B83AC83BD830E9427021A
:100610006A877B878C879D8781E089838883DF91C8
:10062000CF910895FC0101900020E9F73197AF01C7
:10063000481B590BBC018FE991E00C94FF00CF934C
:10064000DF930E94EC01EC0184E291E00E9412032E
:100650008C0F9D1FDF91CF9108958F929F92AF9243
:10066000BF920F931F93CF93DF93CDB7DEB7A197C0
:100670000FB6F894DEBF0FBECDBF19A2423008F40A
:100680004AE08E010F5D1F4F842E912CB12CA12CBE
:10069000A50194010E94BA10E62FB901CA01EA30FF
:1006A000F4F4E05DD801EE938D01232B242B252B50
:1006B00079F790E080E0109719F0CD010E941203C5
:1006C000A1960FB6F894DEBF0FBECDBFDF91CF91DC
:1006D0001F910F91BF90AF909F908F900895E95C0C
:1006E000E1CF682F70E090E080E04AE00C942D03A9
:1006F0004F925F926F927F928F929F92AF92BF9232
:10070000CF92DF92EF92FF920F931F93CF936B01E3
:100710007C01742EAC019B010E949110882399F0FA
:1007200087E291E0CF911F910F91FF90EF90DF90C2
:10073000CF90BF90AF909F908F907F906F905F9081
:100740004F900C94120346015701E894B7F82FEF2D
:100750003FEF4FE75FE7C501B4010E94911081119F
:100760000DC02FEF3FEF4FE75FE7C501B4010E94D7
:10077000C70E18161CF48BE291E0D4CF2FEF3FEF99
:100780004FE75FE4C701B6010E941F1018161CF462
:100790008FE291E0C7CF2FEF3FEF4FE75FECC7014C
:1007A000B6010E94C70E87FDF3CF20E030E0A9011B
:1007B000C701B6010E94C70E10E000E087FF0AC023
:1007C0006DE28FE991E00E949F018C01F7FAF094AD
:1007D000F7F8F094C0E060E070E080E09FE37C1602
:1007E00041F020E030E040E251E40E94CC0ECF5FC7
:1007F000F6CFA70196010E945B0E2B013C010E94DF
:100800003E0F4B015C014AE00E942D037C01E00E8B
:10081000F11ECC23C1F1C501B4010E946D0F9B01F3
:10082000AC01C301B2010E945A0E4B015C016EE2A1
:100830008FE991E00E949F01E80EF91EC15018F166
:1008400020E030E040E251E4C501B4010E942410F0
:100850002B013C010E943E0F4B01B12CA12C4AE020
:10086000C501B4010E942D03E80EF91EC501B401B3
:100870000E946D0F9B01AC01C301B2010E945A0E90
:100880004B015C01DBCFC701CF911F910F91FF900E
:10089000EF90DF90CF90BF90AF909F908F907F9020
:1008A0006F905F904F9008952F923F924F925F927A
:1008B0006F927F928F929F92AF92BF92CF92DF9270
:1008C000EF92FF920F931F93CF93DF93D82FC92FEF
:1008D0008B010E941E0E24E630E040E050E00E94B2
:1008E000BA1049019B01AC0160E876E988E990E023
:1008F0000E9496106B017C01F80191828082ED2F9D
:10090000FC2F2191822F022E000C990BC0970A9781
:10091000C0F32E3239F51F0180E8882E86E9982E23
:1009200088E9A82EB12C9AE0492E512C612C712C0B
:10093000F101C1911F010C2E000CDD0BE097CA30B4
:10094000D10580F4C501B401A30192010E94BA103F
:1009500049015A01DE010E94ED10C60ED71EE81EA5
:10096000F91EE6CFA5E0B0E0A70196010E94E210D3
:100970006F5F7F4F8F4F9F4F23E030E040E050E0AC
:100980000E94BA10F8012283338344835583168270
:10099000DF91CF911F910F91FF90EF90DF90CF905B
:1009A000BF90AF909F908F907F906F905F904F908F
:1009B0003F902F9008951F93CF93DF93EC01188100
:1009C0001D3209F42196CE010E941E0E9B01AC013E
:1009D000A4E6B0E00E94E210AB01BC01FE01299147
:1009E000822F022E000C990BC0970A97B8F32E3273
:1009F00031F58181082E000C990BC0978A30910542
:100A0000F0F4AAE0A89F9001A99F300D1124C9011C
:100A1000330FAA0BBB0B480F591F6A1F7B1F828124
:100A2000082E000C990BC0978A30910540F4092ECE
:100A3000000CAA0BBB0B480F591F6A1F7B1F1D32EE
:100A400039F470956095509541955F4F6F4F7F4F8A
:100A5000CB01BA01DF91CF911F9108951F920F92A0
:100A60000FB60F9211242F933F934F935F936F9381
:100A70007F938F939F93AF93BF93EF93FF938FE9F0
:100A800091E00E947D01FF91EF91BF91AF919F9105
:100A90008F917F916F915F914F913F912F910F9027
:100AA0000FBE0F901F9018951F920F920FB60F92C6
:100AB00011242F938F939F93EF93FF93E091AF01B6
:100AC000F091B0018081E091B501F091B60182FD15
:100AD0001BC090818091B8018F5F8F732091B90105
:100AE000821741F0E091B801F0E0E156FE4F958F9A
:100AF0008093B801FF91EF919F918F912F910F906B
:100B00000FBE0F901F9018958081F4CF1F920F9207
:100B10000FB60F9211242F933F938F939F93AF9310
:100B2000BF938091970190919801A0919901B09104
:100B30009A013091960123E0230F2D3758F5019645
:100B4000A11DB11D20939601809397019093980168
:100B5000A0939901B0939A01809192019091930191
:100B6000A0919401B09195010196A11DB11D8093B2
:100B7000920190939301A0939401B0939501BF913A
:100B8000AF919F918F913F912F910F900FBE0F903A
:100B90001F90189526E8230F0296A11DB11DD2CFF4
:100BA0001F920F920FB60F9211242F933F934F93E2
:100BB0005F936F937F938F939F93AF93BF93EF93C5
:100BC000FF93E0919D01F0919E01309749F0A68539
:100BD000B7858585968D91FF14C09C918923A1F4DA
:100BE000FF91EF91BF91AF919F918F917F916F9105
:100BF0005F914F913F912F910F900FBE0F901F90DB
:100C000018959C91892361F7A389B4899C91858962
:100C1000809589238C93868997890197F1F7608D58
:100C2000718DA685B785558538E020E0CB01019709
:100C3000F1F7822F90E095958795282F4C914523C9
:100C400009F02068315091F7868D81FD20958091C3
:100C50009C0190E001968F73992730919B01381782
:100C600099F0A0919C01B0E0AE5ABE4F2C938093B6
:100C70009C01828D938D0197F1F7A389B4898C91A2
:100C80009589892B8C93ACCF868D8160868FF1CF2F
:100C900090E0FC01E859FF4F2491FC01EE56FE4F15
:100CA0003491FC01E258FE4FE491EE23C9F0222377
:100CB00039F0233001F1A8F4213019F1223029F163
:100CC000F0E0EE0FFF1FEC58FE4FA591B4918FB7E7
:100CD000F894EC91611126C030953E233C938FBF70
:100CE00008952730A9F02830C9F0243049F78091C1
:100CF00080008F7D03C0809180008F77809380007B
:100D0000DFCF84B58F7784BDDBCF84B58F7DFBCFFC
:100D10008091B0008F778093B000D2CF8091B000E7
:100D20008F7DF9CF3E2BDACF0F931F93CF93DF93B5
:100D30001092A2011092A10188EE93E0A0E0B0E031
:100D40008093A3019093A401A093A501B093A60161
:100D500024E031E03093A00120939F0125EC30E0A6
:100D60003093AC012093AB0124EC30E03093AE0122
:100D70002093AD0120EC30E03093B0012093AF011F
:100D800021EC30E03093B2012093B10122EC30E04D
:100D90003093B4012093B30126EC30E03093B601D8
:100DA0002093B5011092B8011092B9011092BA01C6
:100DB0001092BB0110925B0210925C0210925E02D4
:100DC00010925D0210925F02109260021092610216
:100DD00010926202109263021092650210926402F5
:100DE00010926602109267021092680210926902D5
:100DF00010926A0210926C0210926B0210926D02B5
:100E000010926E0210926F02109270021092710294
:100E10001092730210927202109274021092750274
:100E200010927602109277021092780210927D0250
:100E300010927E0210927F02109280021092810224
:100E40001092820210928B0210928C0210928D02EC
:100E500010928E0210928F021092900210929902BC
:100E600010929A0210929F021092A0021092A10278
:100E70001092A2021092A7021092A8021092AD0244
:100E80001092AE021092AF021092B0021092B50210
:100E90001092B6021092BB021092BC021092BD02D8
:100EA0001092BE021092C3021092C4021092C902A4
:100EB0001092CA021092CB021092CC021092D10270
:100EC0001092D2021092D7021092D8021092D90238
:100ED0001092DA021092DF021092E00222E02093D8
:100EE000F0021092F1021092F2021092F3021092AC
:100EF000F5021092F4021092F7021092F60210928C
:100F0000F8021092F9021092FA021092FB0210926B
:100F1000FC021092FD021092FE021092FF0210924B
:100F20000003109201031092020310920303109227
:100F30000403109205031092060310920703109207
:100F4000E10210923F0210923E0280934002909381
:100F50004102A0934202B093430286E191E0909354
:100F60003D0280933C021092530210925202109262
:100F7000550210925402109257021092560210928B
:100F800059021092580260915A026E7F6D7F6093F1
:100F90005A026695617081E068278BE00E944806DE
:100FA0004DE951E0FA01649189E891E0FC01249156
:100FB000222399F030E0220F331FF901E659FE4F4A
:100FC000A591B491F901EC58FE4F259134912FB7BA
:100FD000F8943C91632B6C932FBFFA01449140939A
:100FE0004C02FC018491E82FF0E0EE0FFF1FEC585B
:100FF000FE4F8591949190934E0280934D020AE9A1
:1010000011E0F8012491C6E8D1E0FE018491882323
:10101000C9F090E0880F991FFC01E659FE4FA59199
:10102000B491FC01EC58FE4F459154913FB7F894B0
:101030009C91822F809598239C93FA01908189231B
:1010400080833FBF80915A0281FD04C061E088E047
:101050000E94480688E080934802F80104910093BA
:101060004902FE01C491EC2FF0E0EE0FFF1FE05AA1
:10107000FE4F8591949190934B0280934A02DF91A9
:10108000CF911F910F910895789484B5826084BDAB
:1010900084B5816084BD85B5826085BD85B581607C
:1010A00085BD80916E00816080936E0010928100FA
:1010B00080918100826080938100809181008160B5
:1010C0008093810080918000816080938000809176
:1010D000B10084608093B1008091B0008160809302
:1010E000B00080917A00846080937A0080917A00C9
:1010F000826080937A0080917A00816080937A0088
:1011000080917A00806880937A001092C100E0910B
:10111000AF01F091B00182E08083E091AB01F091EA
:10112000AC011082E091AD01F091AE018FEC8083B3
:101130001092B701E091B301F091B40186E0808391
:10114000E091B101F091B201808180618083E091F2
:10115000B101F091B201808188608083E091B1019A
:10116000F091B201808180688083E091B101F091BB
:10117000B20180818F7D80831092570210925602B7
:101180001092550210925402109253021092520281
:101190008DE991E090935902809358029091480212
:1011A000963108F047C02DEB30E030935302209386
:1011B00052022BE931E030935502209354022CE285
:1011C00031E030935702209356022091680084E06A
:1011D000983048F031E09E3008F430E081E001C002
:1011E000880F3A95EAF7822B809368002DE630E06D
:1011F000983050F02BE630E09E3030F02CE630E0B6
:10120000963110F030E020E03093500220934F02EE
:10121000292F30E0983008F04EC181E001C0880FDE
:101220009A95EAF780935102809158029091590261
:101230000197F1F78091560290915702892B49F15D
:10124000E0919D01F0919E0122E0EC33F20709F15B
:10125000309739F0A389B4899C9185898095892339
:101260008C9380915A028E7F80935A0210929C0137
:1012700010929B018CE392E090939E0180939D01DC
:10128000E0914F02F0915002808190915102892BA0
:10129000808388EE90E00E941F0388EA90E00E941D
:1012A0001F038AE890E00E94EC0183E391E00E9432
:1012B000120384E291E00E9412038CE790E00E9406
:1012C0001F0384E291E00E94120384E6C82ED12C11
:1012D000E12CF12C90E1892E97E2992EA12CB12CD2
:1012E00020E0222E20E0322ED1E08CE392E00E941A
:1012F000A802181619060CF0D3C28CE392E00E94E3
:10130000C002C82F8091F8029091F902A091FA02D0
:10131000B091FB020196A11DB11D8093F80290933C
:10132000F902A093FA02B093FB02C43209F487C217
:10133000E091F202C5320CF0CBC0CA3019F0CD30CA
:1013400009F08BC2EF3008F040C1F0E0EF51FD4FE3
:1013500010827090E002772009F439C12091E102F7
:10136000822F022E000C990B3FEB320F363008F023
:10137000BBC0C7978295807F9091E202292F092EEA
:10138000000C330B4FEB490F463008F0B5C0275324
:101390003109820F9091DF02891304C18091040307
:1013A00090910503A0910603B09107030196A11D3A
:1013B000B11D8093040390930503A0930603B0939B
:1013C00007038091F302882399F08091FC029091A9
:1013D000FD02A091FE02B091FF020196A11DB11D78
:1013E0008093FC029093FD02A093FE02B093FF0253
:1013F0001091F002112309F488C01130A1F58DE796
:1014000092E00E94FB028BE892E00E94FB02809136
:10141000F302882341F187E0EBE6F2E0ADE5B2E0CC
:1014200001900D928A95E1F787E0E2E7F2E0A4E609
:10143000B2E001900D928A95E1F70E942702609335
:10144000790270937A0280937B0290937C021093CE
:101450005C0210935B0289E992E00E94E40287EA51
:1014600092E00E94E4020091F6021091F702011549
:10147000110509F440C2E091F602F091F70266A16D
:1014800077A1F80186A197A10E941811892B09F074
:1014900032C2B801C80140960E9421110E94270261
:1014A000F80160A371A382A393A321E025A324A341
:1014B00002A513A5DCCF9E3040F42850310981E00D
:1014C00001C0880F2A95EAF7ADCE2E503109F7CF2B
:1014D000CA3209F437CFCC3209F0BFC18091DF02A4
:1014E0008C278093DF022ECF2156263018F48755A3
:1014F000910940CFC0973ECF9156963018F42755AA
:10150000310947CF2053310944CF8BE892E00E9444
:10151000FB028091F302882321F187E0EBE6F2E001
:10152000ADE5B2E001900D928A95E1F787E0E2E740
:10153000F2E0A4E6B2E001900D928A95E1F70E94F4
:1015400027026093790270937A0280937B029093D2
:101550007C02D0935C02D0935B0285EB92E00E9408
:10156000E4028091CD029091CE02A091CF02B09181
:10157000D0028093C9029093CA02A093CB02B09389
:10158000CC020E9427026093C5027093C60280932A
:10159000C7029093C802D093C402D093C30281EDD6
:1015A00092E05FCF8091000390910103A09102032C
:1015B000B09103030196A11DB11D80930003909388
:1015C0000103A0930203B0930303712C94C1909183
:1015D000F102911145C069E371E081EE92E00E9451
:1015E0001811892B41F06FE371E081EE92E00E94C7
:1015F0001811892BF1F4D093F0028091F4029091AC
:10160000F5029093F7028093F6020091F602109192
:10161000F70201151105C9F261EE72E0F80186A129
:1016200097A10E94181197FF5FC1F80182A593A5A9
:10163000E8CF65E471E081EE92E00E941811892BF9
:1016400041F06BE471E081EE92E00E941811892B69
:1016500019F41092F002D1CF82E08093F002CDCF46
:10166000E091F002E23009F448C08091E102882361
:1016700009F443C020E2E29FF0011124E92B3197E5
:10168000E932F10508F039C0E85BF44F0C94DC1046
:10169000710BB20BB90BC00BC30BF10BF80B050CA4
:1016A000120C7D0B7D0B7D0B7D0B7D0B7D0B7D0B64
:1016B0007D0B7D0B7D0B7D0B7D0B7D0B7D0B7D0BEA
:1016C0007D0B7D0B7D0B7D0B7D0B7D0B7D0B7D0BDA
:1016D000710BAC0BB20BB90BC00BC30BCA0BD70B06
:1016E000E40B81EE92E00E94DB0460939102709320
:1016F000920280939302909394020091F6021091CB
:10170000F7027090F1020115110509F45ECFE09126
:10171000F602F091F70266A177A1F80186A197A1E0
:101720000E941811892B09F050CFF80120A531A58E
:10173000872D90E0821793070CF447CF28173907BD
:1017400039F440E150E061EE72E0C8010E942811D6
:10175000F80102A513A5D5CF91E0813409F445C065
:1017600090E043C06BE672E081EE92E00E94540488
:10177000C4CF91E0833509F090E090937102BDCF22
:1017800062E772E0F1CF91E0873509F090E0909345
:101790007802B3CF81EE92E00E94DB046093A30253
:1017A0007093A4028093A5029093A602A6CF81EE27
:1017B00092E00E94DB046093B1027093B2028093C6
:1017C000B3029093B40299CF81EE92E00E941E0E74
:1017D00060938302709384028093850290938602C3
:1017E0008CCF91E081330CF4BBCF9093F30285CF83
:1017F00081EE92E00E941E0E6093CD027093CE02A5
:101800008093CF029093D00278CF81EE92E00E9435
:10181000DB046093DB027093DC028093DD02909323
:10182000DE026BCF81EE92E00E94DB046093BF0288
:101830007093C0028093C1029093C2025ECF109257
:10184000F2021092F1021092DF02F2E0F093F00245
:101850001092E0021092F30248CDEE3040F481E0A5
:101860008E0F8093F202F0E0EF51FD4FC083809124
:10187000E00281113ACD8091DF02C827C093DF02D8
:1018800034CD8CE291E00E94EC01A4C082E191E0B1
:101890000E94EC01EDC08AEF90E00E94EC01ADC126
:1018A0000E942702693873418105910588F0809173
:1018B000F8029091F902A091FA02B091FB020A9706
:1018C000A105B10528F481E491E00E941F03FFCF38
:1018D0002114310409F409CD0E946901882309F417
:1018E00003CD0E94000000CD892B09F46ECE10922A
:1018F000F7021092F6028091F1028F5F8093F1025D
:101900001092F20281E0CA3209F080E08093E00296
:10191000772009F4EACC86E391E00E94EC01809103
:101920005B02882309F4ADCF10925C0260915F02E4
:101930007091600280916102909162020E946D0F2D
:1019400028E23BE64EE65EE40E94CC0E2B013C0111
:1019500060915D0270915E0290E080E00E946D0FE8
:101960009B01AC01C301B2010E945B0E2091630296
:101970002111905846E00E94780384E391E00E9490
:10198000EC0110925C026091660270916702809196
:101990006802909169020E946D0F28E23BE64EE6D4
:1019A0005EE40E94CC0E2B013C01609164027091B8
:1019B000650290E080E00E946D0F9B01AC01C301C5
:1019C000B2010E945B0E20916A022111905846E0FC
:1019D0000E9478038EE191E00E94EC0180917D02EB
:1019E000882309F453CF10927E0260917F02709198
:1019F00080028091810290918202A70196010E944B
:101A0000BA10CA01B901A70196010E94BA10862F27
:101A10000E9471038CE191E00E94EC0110927E0221
:101A200060917F0270918002809181029091820288
:101A3000A50194010E94BA10822F0E9471038AE1CD
:101A400091E00E94EC0110927E0260917F02709101
:101A500080028091810290918202A70196010E94EA
:101A6000BA106053784F90E080E04AE00E942D0366
:101A700080E191E00E94EC0180918B02882309F4BF
:101A80000ACF10928C0260918D0270918E0280912B
:101A90008F029091900220E432E44FE050E00E94E7
:101AA000BA102A3020F48EE091E00E94EC011092EE
:101AB0008C0260918D0270918E0280918F029091C4
:101AC000900220E432E44FE050E00E94BA10822FEE
:101AD0000E9471038CE091E00E94EC0110928C0254
:101AE00060918D0270918E0280918F029091900290
:101AF000A50194010E94BA10CA01B901A70196017B
:101B00000E94BA106A3020F48AE091E00E94EC0151
:101B100010928C0260918D0270918E0280918F02E2
:101B200090919002A50194010E94BA10CA01B901D6
:101B3000A70196010E94BA10862F0E94710388E0C7
:101B400091E00E94EC0110928C0260918D027091E4
:101B50008E0280918F0290919002A70196010E94BF
:101B6000BA10CA01B901A70196010E94BA106A30E1
:101B700020F486E091E00E94EC0110928C026091CA
:101B80008D0270918E0280918F0290919002A70138
:101B900096010E94BA10CA01B901A70196010E94DC
:101BA000BA10862F0E94710384E091E00E94EC013C
:101BB00010928C0260918D0270918E0280918F0242
:101BC00090919002A70196010E94BA106A3020F409
:101BD00082E091E00E94EC0110928C0260918D02F3
:101BE00070918E0280918F0290919002A7019601D0
:101BF0000E94BA10862F0E94710384E291E00E9435
:101C0000120373CB86E191E090933D0280933C02F6
:101C100080919D0190919E018C53924071F4E091CE
:101C20004F02F0915002908180915102809589235A
:101C3000808310929E0110929D0108951F93FC01D4
:101C400099278827BC01E89411911032E9F31930E3
:101C500010F01E30C8F31B3251F01D3249F4689465
:101C600006C00E94450E610F711D811D911D1191CD
:101C700010531A30B0F33EF49095809570956195AD
:101C80007F4F8F4F9F4F1F910895592F482F372F08
:101C9000262F660F771F881F991F660F771F881FD3
:101CA000991F620F731F841F951F660F771F881F70
:101CB000991F08955058BB27AA270E94720E0C94B2
:101CC000E50F0E94D70F38F00E94DE0F20F039F4A4
:101CD0009F3F19F426F40C94D40F0EF4E095E7FB23
:101CE0000C94CE0FE92F0E94F60F58F3BA17620733
:101CF00073078407950720F079F4A6F50C94181063
:101D00000EF4E0950B2EBA2FA02D0B01B901900116
:101D10000C01CA01A0011124FF27591B99F0593F5A
:101D200050F4503E68F11A16F040A22F232F342FA2
:101D30004427585FF3CF469537952795A795F040F0
:101D40005395C9F77EF41F16BA0B620B730B840B05
:101D5000BAF09150A1F0FF0FBB1F661F771F881FBD
:101D6000C2F70EC0BA0F621F731F841F48F4879515
:101D700077956795B795F7959E3F08F0B0CF939507
:101D8000880F08F09927EE0F9795879508950E9480
:101D9000AA0F08F481E008950E94E00E0C94E50F6C
:101DA0000E94DE0F58F00E94D70F40F029F45F3FE9
:101DB00029F00C94CE0F51110C9419100C94D40FDF
:101DC0000E94F60F68F39923B1F3552391F3951B05
:101DD000550BBB27AA2762177307840738F09F5F4C
:101DE0005F4F220F331F441FAA1FA9F335D00E2EB9
:101DF0003AF0E0E832D091505040E695001CCAF726
:101E00002BD0FE2F29D0660F771F881FBB1F2617E8
:101E100037074807AB07B0E809F0BB0B802DBF01BF
:101E2000FF2793585F4F3AF09E3F510578F00C948E
:101E3000CE0F0C9419105F3FE4F3983ED4F38695CF
:101E400077956795B795F7959F5FC9F7880F911DAF
:101E50009695879597F90895E1E0660F771F881F9B
:101E6000BB1F621773078407BA0720F0621B730B4E
:101E7000840BBA0BEE1F88F7E09508950E94FE0FC1
:101E800088F09F5798F0B92F9927B751B0F0E1F03B
:101E9000660F771F881F991F1AF0BA95C9F714C0EB
:101EA000B13091F00E941810B1E008950C94181010
:101EB000672F782F8827B85F39F0B93FCCF3869524
:101EC00077956795B395D9F73EF490958095709581
:101ED00061957F4F8F4F9F4F0895E89409C097FBFE
:101EE0003EF490958095709561957F4F8F4F9F4FF1
:101EF0009923A9F0F92F96E9BB279395F695879535
:101F000077956795B795F111F8CFFAF4BB0F11F4F7
:101F100060FF1BC06F5F7F4F8F4F9F4F16C088239E
:101F200011F096E911C0772321F09EE8872F762FD4
:101F300005C0662371F096E8862F70E060E02AF015
:101F40009A95660F771F881FDAF7880F9695879501
:101F500097F90895990F0008550FAA0BE0E8FEEFD6
:101F600016161706E807F907C0F012161306E4075D
:101F7000F50798F0621B730B840B950B39F40A2656
:101F800061F0232B242B252B21F408950A2609F434
:101F9000A140A6958FEF811D811D089597F99F6738
:101FA00080E870E060E008959FEF80EC08950024E1
:101FB0000A941616170618060906089500240A94AE
:101FC00012161306140605060895092E0394000C34
:101FD00011F4882352F0BB0F40F4BF2B11F460FFC3
:101FE00004C06F5F7F4F8F4F9F4F089557FD9058EC
:101FF000440F551F59F05F3F71F04795880F97FBCD
:10200000991F61F09F3F79F0879508951216130686
:102010001406551FF2CF4695F1DF08C016161706B5
:102020001806991FF1CF86957105610508940895EA
:10203000E894BB2766277727CB0197F908950E947C
:10204000AA0F08F48FEF08950E9437100C94E50F43
:102050000E94D70F38F00E94DE0F20F0952311F078
:102060000C94CE0F0C94D40F11240C9419100E94D0
:10207000F60F70F3959FC1F3950F50E0551F629FC7
:10208000F001729FBB27F00DB11D639FAA27F00DD1
:10209000B11DAA1F649F6627B00DA11D661F829FF8
:1020A0002227B00DA11D621F739FB00DA11D621FDD
:1020B000839FA00D611D221F749F3327A00D611DFA
:1020C000231F849F600D211D822F762F6A2F1124DC
:1020D0009F5750409AF0F1F088234AF0EE0FFF1F0F
:1020E000BB1F661F771F881F91505040A9F79E3F66
:1020F000510580F00C94CE0F0C9419105F3FE4F35F
:10210000983ED4F3869577956795B795F795E795BB
:102110009F5FC1F7FE2B880F911D9695879597F9C4
:1021200008950E94AA0F880B990B0895DB018F93E5
:102130009F930E94E210BF91AF91A29F800D911DCD
:10214000A39F900DB29F900D1124089597FB072E29
:1021500016F4009407D077FD09D00E94F51007FC13
:1021600005D03EF4909581959F4F089570956195A7
:102170007F4F0895A1E21A2EAA1BBB1BFD010DC0C3
:10218000AA1FBB1FEE1FFF1FA217B307E407F50727
:1021900020F0A21BB30BE40BF50B661F771F881F03
:1021A000991F1A9469F760957095809590959B0199
:1021B000AC01BD01CF010895EE0FFF1F0590F49112
:1021C000E02D09940E940911A59F900DB49F900DD8
:1021D000A49F800D911D11240895B7FF0C94E21067
:1021E0000E94E210821B930B0895AA1BBB1B51E1B6
:1021F00007C0AA1FBB1FA617B70710F0A61BB70B77
:10220000881F991F5A95A9F780959095BC01CD011B
:102210000895A29FB001B39FC001A39F700D811DBF
:102220001124911DB29F700D811D1124911D0895DF
:10223000FB01DC018D91019080190110D9F3990BFC
:102240000895FB01DC0101900D920020E1F7089553
:10225000FB01DC014150504048F001900D920020FC
:10226000C9F701C01D9241505040E0F7089510E0B9
:10227000C4EDD0E004C0FE010E94DC102196C53DF3
:08228000D107C9F7F894FFCF64
:10228800000000009F01FF002C0107025D013B01D7
:102298004F01000000004C02FF00E1024B02A802BF
:1022A800C00233020D0A006E616E00696E66006F2F
:1022B800766600312E302E32004750524D4300478B
:1022C8004E524D4300475047474100474E4747410C
:0222D800000004
:00000001FF
