:100000000C9463000C948B000C948B000C94900760
:100010000C9490070C9490070C948B000C948B001C
:100020000C948B000C948B000C948B000C948B0024
:100030000C948B000C948B000C948B000C948B0014
:100040000C9446070C948B000C9414070C94EE0649
:100050000C948B000C948B000C948B000C948B00F4
:100060000C948B000C948B000000000024002700EF
:100070002A0000000008000201000003040700003D
:1000800000000000000000000000230026002900FE
:1000900000000000250028002B00040404040404D0
:1000A0000404020202020202030303030303010227
:1000B00004081020408001020408102001020408F6
:1000C000102051082B0E11241FBECFEFD8E0DEBF49
:1000D000CDBF23E0AAEEB1E001C01D92A439B20762
:1000E000E1F711E0A0E0B1E0EAEDF6E202C0059030
:1000F0000D92AA3EB107D9F710E0C2E6D0E004C0E5
:100100002197FE010E944C11C136D107C9F70E9408
:10011000BE090C9460130C9400000F931F93CF93AF
:10012000DF93C0917303E4E7F3E0CD3211F0E3E72E
:10013000F3E08F0120E030E0A901D801DD918D01CD
:1001400080ED8D0F8A3090F4AAE0B0E00E949D0F00
:100150002D2FDD0F330B440B550B260F371F481F78
:10016000591F2053310941095109E7CFA4E6B0E0F6
:100170000E949D0FAB01BC01DF01819190ED980FB2
:100180009A30D0F38E3259F511968C91119790EDEB
:10019000980F9A3020F5082E000C990BC0972AE092
:1001A000289F8001299F100D1124012E000C220B85
:1001B000330B400F511F621F731F12968C9190EDED
:1001C000980F9A3060F4082E000C990BC097092EF6
:1001D000000CAA0BBB0B480F591F6A1F7B1FCD32A7
:1001E00039F470956095509541955F4F6F4F7F4FF3
:1001F000CB01BA01DF91CF911F910F9108954F92DA
:100200005F926F927F928F929F92AF92BF92CF92A6
:10021000DF92EF92FF921F93CF93DF93C3E7D3E078
:10022000FE01C12CD12C7601119180ED810F8A3015
:10023000A8F4AAE0B0E0A70196010E949D0FC12E8C
:10024000110FDD08EE08FF08C60ED71EE81EF91EC6
:1002500080E3C81AD108E108F108E6CFC701B6016A
:1002600024E630E040E050E00E942A119B01AC01FE
:1002700060EA76E881E090E00E9406114B015C01A3
:100280009E01899190ED980F9A30D0F38E3221F52E
:10029000E901219680E1482E87E2582E612C712CCD
:1002A000A99180ED8A0F8A30B8F40A2E000CBB0B9E
:1002B000D097A30192010E945211860E971EA81E8C
:1002C000B91EC301B2012AE030E040E050E00E94D4
:1002D0002A1129013A01E4CFC701B60124E630E032
:1002E00040E050E00E942A1160E472E48FE090E068
:1002F0000E9406116B017C01C501B4016D5F7F4F47
:100300008F4F9F4F26E030E040E050E00E942A11DE
:10031000C701B601620F731F841F951FDF91CF9134
:100320001F91FF90EF90DF90CF90BF90AF909F9084
:100330008F907F906F905F904F900895AF92BF9293
:10034000CF92DF92EF92FF920F931F93CF93DF93A1
:100350006C017B018B01040F151FEB015E01AE18D0
:10036000BF08C017D10759F06991D601ED91FC91F2
:100370000190F081E02DC6010995892B79F7C5011F
:10038000DF91CF911F910F91FF90EF90DF90CF9071
:10039000BF90AF900895FC01538D448D252F30E020
:1003A000842F90E0821B930B541710F0CF96089582
:1003B00001970895FC01918D828D981761F0A28DAF
:1003C000AE0FBF2FB11D5D968C91928D9F5F9F7375
:1003D000928F90E008958FEF9FEF0895FC01918D2B
:1003E000828D981731F0828DE80FF11D858D90E098
:1003F00008958FEF9FEF0895FC01918D228D892F35
:1004000090E0805C9F4F821B91098F73992708951C
:1004100087E392E00E94FC0121E0892B09F420E0AF
:10042000822F089580E090E0892B29F00E94080235
:1004300081110C9400000895FC01A48DA80FB92F20
:10044000B11DA35ABF4F2C91848D90E001968F73FC
:100450009927848FA689B7892C93A089B1898C911B
:10046000837080648C93938D848D981306C002886A
:10047000F389E02D80818F7D80830895EF92FF9234
:100480000F931F93CF93DF93EC0181E0888F9B8DB7
:100490008C8D98131AC0E889F989808185FF15C071
:1004A0009FB7F894EE89FF896083E889F989808194
:1004B0008370806480839FBF81E090E0DF91CF9163
:1004C0001F910F91FF90EF900895F62E0B8D10E085
:1004D0000F5F1F4F0F731127E02E8C8D8E110CC0F4
:1004E0000FB607FCFACFE889F989808185FFF5CF3F
:1004F000CE010E941C02F1CFEB8DEC0FFD2FF11D00
:10050000E35AFF4FF0829FB7F8940B8FEA89FB897B
:1005100080818062CFCFCF93DF93EC01888D8823D9
:10052000B9F0AA89BB89E889F9898C9185FD03C056
:10053000808186FD0DC00FB607FCF7CF8C9185FF3B
:10054000F2CF808185FFEDCFCE010E941C02E9CF62
:10055000DF91CF91089590E0FC01EE58FF4F249178
:10056000FC01E255FF4F3491FC01E656FF4FE49148
:10057000EE23C9F0222339F0233001F1A8F4213011
:1005800019F1223029F1F0E0EE0FFF1FE057FF4F85
:10059000A591B4918FB7F894EC91611126C0309574
:1005A0003E233C938FBF08952730A9F02830C9F02F
:1005B000243049F7809180008F7D03C080918000B6
:1005C0008F7780938000DFCF84B58F7784BDDBCFBA
:1005D00084B58F7DFBCF8091B0008F778093B00082
:1005E000D2CF8091B0008F7DF9CF3E2BDACFCF9361
:1005F000DF9390E0FC01E255FF4F249186569F4F18
:10060000FC0184918823D1F090E0880F991FFC01B0
:10061000E859FF4FA591B491FC01E057FF4FC591F8
:10062000D49161110EC09FB7F8948C91E22FE095A0
:100630008E238C932881E223E8839FBFDF91CF91A3
:1006400008958FB7F894EC91E22BEC938FBFF6CF1F
:100650003FB7F8948091330290913402A091350213
:10066000B091360226B5A89B05C02F3F19F0019620
:10067000A11DB11D3FBFBA2FA92F982F8827BC01FC
:10068000CD01620F711D811D911D42E0660F771F24
:10069000881F991F4A95D1F708958F929F92AF9224
:1006A000BF92CF92DF92EF92FF920E9428034B01FC
:1006B0005C0180EDC82E87E0D82EE12CF12C0E9441
:1006C0002803681979098A099B09683E73408105E6
:1006D0009105A8F321E0C21AD108E108F10888EEDB
:1006E000880E83E0981EA11CB11CC114D104E10442
:1006F000F10429F7FF90EF90DF90CF90BF90AF907B
:100700009F908F9008952FB7F89460912F02709169
:10071000300280913102909132022FBF08952091D2
:100720002C0230912D022817390771F490912B0279
:1007300080912A02981741F0E0912B02F0E0E651F7
:10074000FE4F808190E008958FEF9FEF0895089508
:10075000EF92FF920F931F93CF93DF93DC015C9690
:10076000ED90FC905D97E114F10479F481E090E064
:1007700013969C938E93129790E080E0DF91CF9137
:100780001F910F91FF90EF9008955196ED91FC917C
:10079000529750968C915097982F90950FB75E96E0
:1007A0002C915E97122F127021FD6095F894208194
:1007B000112319F1282B2083E7012197F1F728E075
:1007C000462F50E0308160FF1AC0382B3083E7019C
:1007D0002197F1F7BA0175956795215089F7112393
:1007E00081F08081892380830FBF5C968D919C91DD
:1007F0000197F1F781E090E0C1CF2923DCCF3923C5
:10080000E5CF9081892BEFCF20912C0230912D02E2
:100810002817390771F480912A0220912B0290E069
:10082000805C9F4F821B910960E470E00E9416116A
:10083000089590E080E0089520912C0230912D02DF
:1008400028173907B9F490912B0280912A02981742
:1008500089F0E0912B02F0E0E651FE4F808120917B
:100860002B0230E02F5F3F4F2F73332720932B0253
:1008700090E008958FEF9FEF0895089590E080E055
:100880000895CF93DF93EC0160E08E810E94AB026C
:1008900061E08E810E94AB0260E08E810E94AB021B
:1008A0008BE891E00197F1F7DF91CF910895CF9216
:1008B000DF92EF92FF920F931F93CF93DF936C0120
:1008C0007C0187E0E80EF11CD0E0C0E0062F10E0CC
:1008D000B8010C2E02C0759567950A94E2F7617015
:1008E000F70181917F010E94AB022196C430D105AE
:1008F00079F7C601DF91CF911F910F91FF90EF9093
:10090000DF90CF900C944104CF92DF92EF92FF9250
:100910000F931F93CF93DF93EC01F62E642F8C81FE
:100920000E94AB028D818F3F19F060E00E94AB0204
:100930000F2D10E08F8584FF25C06E0187E0C80E63
:10094000D11CF12CE12CB8010E2C02C075956795D5
:100950000A94E2F76170F60181916F010E94AB0287
:10096000FFEFEF1AFF0A88E0E816F10461F7CE0105
:10097000DF91CF911F910F91FF90EF90DF90CF907B
:100980000C944104B80184E0759567958A95E1F768
:10099000CE010E9457046F2DCE01DF91CF911F91A0
:1009A0000F91FF90EF90DF90CF900C94570440E0B0
:1009B000682F85E093E00C948404CF93DF9382301A
:1009C00029F4909114039860909314038093180372
:1009D0001092190380E480931A0380E180931B0333
:1009E00080E580931C0361E0809109030E94F70277
:1009F00080910A038F3F19F061E00E94F70261E0E5
:100A000080910B030E94F702C5E0D3E09E012550C0
:100A100033408091140384FD0BC084E090E0219664
:100A20002817390744F461E08E810E94F702EECF67
:100A300088E090E0F4CF8BE39DE00197F1F760E070
:100A4000809109030E94AB0260E080910B030E9439
:100A5000AB0280910A038F3F19F060E00E94AB0265
:100A60008091140384FD39C063E085E093E00E9427
:100A70005704CBE4D6E4CE010197F1F763E085E0BB
:100A800093E00E9457042197F1F763E085E093E03B
:100A90000E94570483E592E00197F1F762E085E058
:100AA00093E00E9457048091140380620E94D7044F
:100AB00084E0809315038CE00E94D70481E00E94BB
:100AC000D7048BE39FE10197F1F782E0809316034F
:100AD00086E0DF91CF910C94D70480620E94D70406
:100AE0008BE496E40197F1F78091140380620E94F1
:100AF000D70483E592E00197F1F7809114038062B7
:100B00000E94D704D0CF41E00E94840481E090E0AD
:100B10000895FC0180819181009711F00C940A12D4
:100B20000895FB0101900020E9F73197AF01461BC2
:100B3000570BDC01ED91FC910280F381E02D0994CB
:100B40008F929F92AF92BF92EF92FF920F931F935B
:100B5000CF93DF93CDB7DEB7A1970FB6F894DEBF82
:100B60000FBECDBF7C01FA01CB0119A2223008F4DF
:100B70002AE08E010F5D1F4F822E912CB12CA12CEB
:100B8000BF01A50194010E942A11F901CA016A302E
:100B90000CF5605DD8016E938D01232B242B252B42
:100BA00079F790E080E0109721F0BD01C7010E9425
:100BB0009105A1960FB6F894DEBF0FBECDBFDF91B1
:100BC000CF911F910F91FF90EF90BF90AF909F90AA
:100BD0008F900895695CDECF2F923F924F925F9283
:100BE0006F927F928F929F92AF92BF92CF92DF923D
:100BF000EF92FF921F93CF93DF93EC016A017B0189
:100C0000722EAB019601CB01B6010E94011166E381
:100C100071E0811126C046015701E894B7F82FEF23
:100C20003FEF4FE75FE7C501B4010E940111811159
:100C30000CC02FEF3FEF4FE75FE7C501B4010E9403
:100C4000790E6AE371E0181664F02FEF3FEF4FE77B
:100C50005FE4C701B6010E94FC101816B4F46EE3FD
:100C600071E0CE01DF91CF911F91FF90EF90DF9067
:100C7000CF90BF90AF909F908F907F906F905F903C
:100C80004F903F902F900C9491052FEF3FEF4FE73F
:100C90005FECC701B6010E94790E87FDE0CF20E02E
:100CA00030E0A901C701B6010E94790E312C212C38
:100CB00087FF0DC0E881F9810190F081E02D6DE2A0
:100CC000CE0109951C01F7FAF094F7F8F09410E0C2
:100CD00060E070E080E09FE3711641F020E030E0DA
:100CE00040E251E40E945B101F5FF6CFA70196011E
:100CF0000E94EF0F2B013C010E94CD104B015C01C3
:100D00002AE0BC01A401CE010E94A0057C01E20CF6
:100D1000F31C1123E1F1C501B4010E947E0E9B0179
:100D2000AC01C301B2010E94EE0F4B015C01E881EE
:100D3000F9810190F081E02D6EE2CE010995E80E77
:100D4000F91E115020F120E030E040E251E4C501ED
:100D5000B4010E94DF0E2B013C010E94CD104B011B
:100D6000B12CA12C2AE0B501A401CE010E94A0055E
:100D7000E80EF91EC501B4010E947E0E9B01AC0174
:100D8000C301B2010E94EE0F4B015C01DACFC70133
:100D9000DF91CF911F91FF90EF90DF90CF90BF90A8
:100DA000AF909F908F907F906F905F904F903F900B
:100DB0002F9008950F931F93CF93DF93EC010E9420
:100DC00091058C0162E471E0CE010E949105800FD3
:100DD000911FDF91CF911F910F9108951F920F9254
:100DE0000FB60F9211242F933F934F935F936F93FE
:100DF0007F938F939F93AF93BF93EF93FF9387E37B
:100E000092E00E941C02FF91EF91BF91AF919F91E0
:100E10008F917F916F915F914F913F912F910F90A3
:100E20000FBE0F901F9018951F920F920FB60F9242
:100E300011242F938F939F93EF93FF93E091470299
:100E4000F09148028081E0914D02F0914E0282FDC6
:100E50001BC09081809150028F5F8F73209151024F
:100E6000821741F0E0915002F0E0E95CFD4F958F70
:100E700080935002FF91EF919F918F912F910F904E
:100E80000FBE0F901F9018958081F4CF1F920F9284
:100E90000FB60F9211242F933F938F939F93AF938D
:100EA000BF9380912F0290913002A0913102B091B6
:100EB000320230912E0223E0230F2D3758F5019690
:100EC000A11DB11D20932E0280932F02909330021A
:100ED000A0933102B0933202809133029091340298
:100EE000A0913502B09136020196A11DB11D8093EB
:100EF000330290933402A0933502B0933602BF912F
:100F0000AF919F918F913F912F910F900FBE0F90B6
:100F10001F90189526E8230F0296A11DB11DD2CF70
:100F20001F920F920FB60F9211242F933F934F935E
:100F30005F936F937F938F939F93AF93BF93EF9341
:100F4000FF93E0912C02F0912D02309749F0A68595
:100F5000B7858585968D91FF14C09C918923A1F456
:100F6000FF91EF91BF91AF919F918F917F916F9181
:100F70005F914F913F912F910F900FBE0F901F9057
:100F800018959C91892361F7A389B4899C918589DF
:100F9000809589238C93868997890197F1F7608DD5
:100FA000718DA685B785558538E020E0CB01019786
:100FB000F1F7822F90E095958795282F4C91452346
:100FC00009F02068315091F7868D81FD2095809140
:100FD0002A0290E001968F73992730912B023817DF
:100FE00099F0A0912A02B0E0A651BE4F2C938093B5
:100FF0002A02828D938D0197F1F7A389B4898C9190
:101000009589892B8C93ACCF868D8160868FF1CFAB
:10101000EF92FF920F931F93CF93DF93EC017B012D
:10102000198218821B821A821D821C82FB01019088
:101030000020E9F731978F01061B170BB8016F5F8E
:101040007F4F90E080E00E9493120097B9F099835F
:1010500088831B830A832C813D81232B11F4FC019F
:1010600010821D830C83B70188819981DF91CF9114
:101070001F910F91FF90EF900C94591388819981E3
:10108000009711F00E940A12198218821D821C8298
:101090001B821A82DF91CF911F910F91FF90EF90E9
:1010A0000895CF92DF92EF92FF9210923A0210923F
:1010B000390298EEC92E93E0D92EE12CF12CC09282
:1010C0003B02D0923C02E0923D02F0923E028AE066
:1010D00091E0909338028093370285EC90E09093F2
:1010E00044028093430284EC90E090934602809304
:1010F000450280EC90E0909348028093470281EC97
:1011000090E090934A028093490282EC90E09093A1
:101110004C0280934B0286EC90E090934E028093B9
:101120004D021092500210925102109252021092EF
:1011300053024FEF5FEFBA0140931D0350931E031C
:1011400060931F03709320031092250310922603CF
:1011500010922703109228038FEF99ECAAE9BBE3C2
:1011600080932D0390932E03A0932F03B09330030D
:101170008093350390933603A0933703B0933803DD
:1011800080933D0390933E03A0933F03B0934003AD
:101190008093450390934603A0934703B09348037D
:1011A00080934D0390934E03A0934F03B09350034D
:1011B000409355035093560360935703709358031D
:1011C0008FEF90E090935E0380935D034093610303
:1011D00050936203609363037093640340936903C5
:1011E00050936A0360936B0370936C0310927103C6
:1011F0001092720382E08093820310928303109214
:101200008403109285031092860310928703109234
:1012100088031092890310928B0310928A03109214
:101220008D0310928C031092730310920803109296
:1012300007032EE231E0309306032093050397E085
:10124000909309039FEF90930A0396E090930B030A
:1012500095E090930C0394E090930D0393E09093AA
:101260000E0380930F03109210031092110310923B
:101270001203109213031092140381E00E94DD0404
:101280001092E9021092E802C092EA02D092EB02B8
:10129000E092EC02F092ED028CE191E09093E70293
:1012A0008093E6021092FD021092FC021092FF025F
:1012B0001092FE0210920103109200031092030399
:1012C00010920203609104036E7F6D7F60930403AC
:1012D0006695617081E0682788E00E94AB0261E05A
:1012E00088E00E94F702E6EBF0E0E491E093F6027A
:1012F000E2EAF0E0E491F0E0EE0FFF1FE057FF4F6D
:10130000859194919093F8028093F70260E08BE0CE
:101310000E94F7028091040381FD04C061E08BE02C
:101320000E94AB028BE08093F202E9EBF0E0E491E3
:10133000E093F302E5EAF0E0E491F0E0EE0FFF1F46
:10134000EA57FF4F859194919093F5028093F402B0
:1013500064E471E080EE92E00E94080865E471E0C8
:101360008AED92E00E94080864E571E084ED92E065
:10137000FF90EF90DF90CF900C940808789484B59C
:10138000826084BD84B5816084BD85B5826085BD81
:1013900085B5816085BD80916E00816080936E000F
:1013A0001092810080918100826080938100809101
:1013B00081008160809381008091800081608093B2
:1013C00080008091B10084608093B1008091B00072
:1013D00081608093B00080917A00846080937A006D
:1013E00080917A00826080937A0080917A00816097
:1013F00080937A0080917A00806880937A001092BE
:10140000C10082E00E94DD04E0914702F0914802B1
:1014100082E08083E0914302F09144021082E091E7
:101420004502F09146028FEC808310924F02E091CA
:101430004B02F0914C0286E08083E0914902F091EA
:101440004A02808180618083E0914902F0914A02E2
:10145000808188608083E0914902F0914A02808116
:1014600080688083E0914902F0914A0280818F7DFB
:10147000808362E671E087E392E00E9491052AE0B2
:101480004DE050E060E070E087E392E00E94A0054C
:1014900062E471E087E392E00E9491056DE771E0FC
:1014A00087E392E00E94DA0662E471E087E392E06B
:1014B0000E949105E1E0809118038111E0E0E1953F
:1014C000F0E0EB5FFC4F848980680E94D70469E8F4
:1014D00071E085E093E00E949105E0911803E2300D
:1014E00008F0D3C0E150F0E0EB5FFC4F84898068E6
:1014F0000E94D7046AE971E085E093E00E949105BB
:101500000E944D0390E0E92E90E0F92ED2E001E038
:101510000E9483034B015C0110E00E948303681961
:1015200079098A099B09683E73408105910508F491
:101530008AC1112309F49DC040902D0350902E03C1
:1015400060902F03709030038090350390903603A5
:10155000A0903703B09038038091690390916A039B
:10156000A0916B03B0916C038F3F9F4FAF4FBF4F64
:1015700011F00E948303FFEF4F16F9EC5F06FAE9C2
:101580006F06FBE37F0609F457C3C301B2010E9453
:10159000800E20E034E244E759E40E945B102B0106
:1015A0003C01C501B4010E94800E20E034E244E712
:1015B00059E40E945B104B015C0167EB71E087E32B
:1015C00092E00E94910520E030E04AE754E4C30134
:1015D000B2010E94790E811103C0412C512C3201BD
:1015E00026E0B301A20187E392E00E94EC0566ECDD
:1015F00071E087E392E00E94910520E030E04AE745
:1016000054E4C501B4010E94790E811103C0812CFC
:10161000912C540126E0B501A40187E392E00E94D9
:10162000EC0562E471E087E392E00E94910566EDCB
:1016300071E085E093E00E94DA0626E0B301A201A2
:1016400085E093E00E94EC056FED71E085E093E0AA
:101650000E94DA0626E0B501A40185E093E00E942D
:10166000EC0562E471E085E093E00E9491050E9440
:101670004D03E114F10409F44BCF0E9408028823C2
:1016800009F446CF0E94000043CFE1E02CCFCA32DC
:1016900009F405C1CC3209F0BBC2809171038C27DB
:1016A00080937103FCC090918303F0E0ED58FC4FF0
:1016B0001082D0907203DD2009F46AC12091730377
:1016C000822F022E000C990B3FEB320F363008F0C0
:1016D000EBC0C7978295807F90917403292F092EC4
:1016E000000C330B4FEB490F463008F0E5C0275391
:1016F0003109820F90917103891340C1D090850305
:10170000DD2009F4CFC080918A0390918B0301966C
:1017100090938B0380938A03809165039091660375
:10172000A0916703B0916803809361039093620373
:10173000A0936303B093640380916D0390916E0353
:10174000A0916F03B09170038093690390936A0333
:10175000A0936B03B0936C0380918203882309F4F8
:10176000B4C0813009F060C08091210390912203C0
:10177000A0912303B091240380931D0390931E0333
:10178000A0931F03B09320038091290390912A0313
:10179000A0912B03B0912C038093250390932603F3
:1017A000A0932703B09328038091310390913203D3
:1017B000A0913303B091340380932D0390932E03B3
:1017C000A0932F03B09330038091390390913A0393
:1017D000A0913B03B0913C03809335039093360373
:1017E000A0933703B09338038091490390914A0343
:1017F000A0914B03B0914C03809345039093460313
:10180000A0934703B09348038091510390915203F2
:10181000A0915303B091540380934D0390934E03D2
:10182000A0934F03B0935003809183038F5F809305
:1018300083031092840381E0CA3209F080E0809330
:101840007203D1101D2D87E392E00E94FC01892BC9
:1018500009F463CE87E392E00E94DA01C82F8091F9
:10186000860390918703A0918803B0918903019624
:10187000A11DB11D8093860390938703A0938803D5
:10188000B0938903C43209F4B6C1E0918403C53230
:101890000CF0FDCECA3019F0CD3009F0B9C1EF30EF
:1018A00008F401CFD12CC0CF2156263018F487552B
:1018B000910910CFC0970ECF9156963018F4275546
:1018C000310917CF2053310914CF809141039091F2
:1018D0004203A0914303B091440380933D0390934E
:1018E0003E03A0933F03B093400380912103909166
:1018F0002203A0912303B091240380931D039093AE
:101900001E03A0931F03B093200380913103909195
:101910003203A0913303B091340380932D0390934D
:101920002E03A0932F03B09330038091390390913D
:101930003A03A0913B03B0913C038093350390930D
:101940003603A0933703B093380380915F039091DF
:10195000600390935E0380935D038091590390919F
:101960005A03A0915B03B0915C038093550390935D
:101970005603A0935703B093580356CF80918C031E
:1019800090918D03019690938D0380938C038ACF61
:1019900091111CC0A3E7B3E04BEA51E0CD01FC017B
:1019A0002191CF01222309F450C1FA013191AF01F5
:1019B0002317A9F3E1EBF1E08D91882309F448C1E5
:1019C00091918917C9F3D09382032ECFE0918203BE
:1019D000E23009F467CF80917303882309F462CF62
:1019E00020E2E29FF0011124E92B3197E932F10561
:1019F00008F01ACFE250F34F0C944C11440D5F0DD8
:101A0000740D8F0D9A0DD40DDB0DE50DF00D140C3A
:101A1000140C140C140C140C140C140C140C140CC6
:101A2000140C140C140C140C140C140C140C140CB6
:101A3000140C140C140C140C140C140C440D590D2F
:101A40005F0D740D8F0D9A0DB50DC00D270DE3E7D9
:101A5000F3E020E030E0A901C19080ED8C0D8A30E8
:101A600008F099C0AAE0B0E00E949D0F2C2DCC0C8C
:101A7000330B440B550B260F371F481F591F20539C
:101A8000310941095109E8CF0E948D00609321037B
:101A90007093220380932303909324030E94830373
:101AA0006093650370936603809367039093680364
:101AB000BBCE91E0813409F47BC090E079C00E94F4
:101AC000FF0060933103709332038093330390934C
:101AD00034030E94830360936D0370936E038093BD
:101AE0006F0390937003A0CE833509F0DBCE809115
:101AF000310390913203A0913303B0913403B09538
:101B0000A095909581959F4FAF4FBF4F8093310324
:101B100090933203A0933303B093340385CE0E9495
:101B2000FF006093390370933A0380933B039093D3
:101B30003C037ACE873509F0B5CE80913903909178
:101B40003A03A0913B03B0913C03B095A0959095CA
:101B500081959F4FAF4FBF4F8093390390933A03C6
:101B6000A0933B03B0933C035FCE0E948D00609333
:101B7000490370934A0380934B0390934C0354CED4
:101B80000E948D006093510370935203809353031E
:101B90009093540349CE2093290330932A03409312
:101BA0002B0350932C0340CE91E081330CF485CF6E
:101BB0009093850339CE83E793E00E94530E9927D3
:101BC0009093600380935F032FCE0E948D006093FB
:101BD000590370935A0380935B0390935C0324CE64
:101BE0000E948D00609341037093420380934303EE
:101BF0009093440319CE10928403109283031092A1
:101C00007103D093820310927203109285031BCE4E
:101C1000EE3040F481E08E0F80938403F0E0ED58C5
:101C2000FC4FC0838091720381110DCE80917103AE
:101C3000C827C093710307CE412C512C8AE7682E28
:101C400084E4782E53014201B8CC00938203ECCD9A
:101C500010928203E9CD84ED92E00E9489058AED1D
:101C600092E00E94890580EE92E00E9489058CE155
:101C700091E09093E7028093E60280912C0290918C
:101C80002D02865E924071F4E091F902F091FA0221
:101C900090818091FB0280958923808310922D0290
:101CA00010922C020895FC0188279927E89421912D
:101CB0002032E9F3293010F02E30C8F32B3241F0F6
:101CC0002D3239F4689404C00E94710E820F911D68
:101CD000219120532A30C0F31EF4909581959F4F97
:101CE00008957AE0979F902D879F802D910D112464
:101CF00008950E94BB0E08F481E00895E89409C09D
:101D000097FB3EF490958095709561957F4F8F4F2E
:101D10009F4F9923A9F0F92F96E9BB279395F69544
:101D2000879577956795B795F111F8CFFAF4BB0FC2
:101D300011F460FF1BC06F5F7F4F8F4F9F4F16C026
:101D4000882311F096E911C0772321F09EE8872FB0
:101D5000762F05C0662371F096E8862F70E060E06C
:101D60002AF09A95660F771F881FDAF7880F9695E5
:101D7000879597F90895990F0008550FAA0BE0E889
:101D8000FEEF16161706E807F907C0F0121613063D
:101D9000E407F50798F0621B730B840B950B39F47D
:101DA0000A2661F0232B242B252B21F408950A26E3
:101DB00009F4A140A6958FEF811D811D08950E9411
:101DC000F20E0C94630F0E94550F38F00E945C0FC6
:101DD00020F0952311F00C944C0F0C94520F112409
:101DE0000C94970F0E94740F70F3959FC1F3950F99
:101DF00050E0551F629FF001729FBB27F00DB11D8F
:101E0000639FAA27F00DB11DAA1F649F6627B00D1E
:101E1000A11D661F829F2227B00DA11D621F739F07
:101E2000B00DA11D621F839FA00D611D221F749F15
:101E30003327A00D611D231F849F600D211D822F5C
:101E4000762F6A2F11249F5750409AF0F1F0882383
:101E50004AF0EE0FFF1FBB1F661F771F881F9150B0
:101E60005040A9F79E3F510580F00C944C0F0C9404
:101E7000970F5F3FE4F3983ED4F386957795679587
:101E8000B795F795E7959F5FC1F7FE2B880F911DDA
:101E90009695879597F9089597F99F6780E870E080
:101EA00060E008959FEF80EC089500240A941616D0
:101EB000170618060906089500240A941216130638
:101EC000140605060895092E0394000C11F48823C6
:101ED00052F0BB0F40F4BF2B11F460FF04C06F5FE2
:101EE0007F4F8F4F9F4F089557FD9058440F551FB8
:101EF00059F05F3F71F04795880F97FB991F61F08C
:101F00009F3F79F087950895121613061406551F02
:101F1000F2CF4695F1DF08C0161617061806991F6E
:101F2000F1CF86957105610508940895E894BB2763
:101F300066277727CB0197F908950E94DF0FA59FA9
:101F4000900DB49F900DA49F800D911D11240895B4
:101F50002F923F924F925F926F927F928F929F92B9
:101F6000AF92BF92CF92DF92EF92FF920F931F93A7
:101F7000CF93DF93CDB7DEB7CA1BDB0B0FB6F89458
:101F8000DEBF0FBECDBF09942A88398848885F8498
:101F90006E847D848C849B84AA84B984C884DF8009
:101FA000EE80FD800C811B81AA81B981CE0FD11DED
:101FB0000FB6F894DEBF0FBECDBFED010895A29F0E
:101FC000B001B39FC001A39F700D811D1124911D0D
:101FD000B29F700D811D1124911D08955058BB278B
:101FE000AA270E9406100C94630F0E94550F38F028
:101FF0000E945C0F20F039F49F3F19F426F40C94F2
:10200000520F0EF4E095E7FB0C944C0FE92F0E9461
:10201000740F58F3BA17620773078407950720F007
:1020200079F4A6F50C94960F0EF4E0950B2EBA2FCA
:10203000A02D0B01B90190010C01CA01A0011124CE
:10204000FF27591B99F0593F50F4503E68F11A167A
:10205000F040A22F232F342F4427585FF3CF46950B
:1020600037952795A795F0405395C9F77EF41F162D
:10207000BA0B620B730B840BBAF09150A1F0FF0FF7
:10208000BB1F661F771F881FC2F70EC0BA0F621FE3
:10209000731F841F48F4879577956795B795F795D3
:1020A0009E3F08F0B0CF9395880F08F09927EE0F68
:1020B0009795879508950E946F100C94630F0E9466
:1020C0005C0F58F00E94550F40F029F45F3F29F053
:1020D0000C944C0F51110C94970F0C94520F0E94BA
:1020E000740F68F39923B1F3552391F3951B550BA6
:1020F000BB27AA2762177307840738F09F5F5F4FDB
:10210000220F331F441FAA1FA9F335D00E2E3AF019
:10211000E0E832D091505040E695001CCAF72BD031
:10212000FE2F29D0660F771F881FBB1F2617370782
:102130004807AB07B0E809F0BB0B802DBF01FF27B4
:1021400093585F4F3AF09E3F510578F00C944C0F36
:102150000C94970F5F3FE4F3983ED4F38695779500
:102160006795B795F7959F5FC9F7880F911D96956D
:10217000879597F90895E1E0660F771F881FBB1FC9
:10218000621773078407BA0720F0621B730B840B76
:10219000BA0BEE1F88F7E09508950E947C0F88F037
:1021A0009F5798F0B92F9927B751B0F0E1F0660F1B
:1021B000771F881F991F1AF0BA95C9F714C0B1305C
:1021C00091F00E94960FB1E008950C94960F672F3E
:1021D000782F8827B85F39F0B93FCCF3869577958B
:1021E0006795B395D9F73EF4909580957095619574
:1021F0007F4F8F4F9F4F08950E94BB0E08F48FEFC3
:1022000008950E94BB0E880B990B0895DB018F93F4
:102210009F930E949D0FBF91AF91A29F800D911D32
:10222000A39F900DB29F900D1124089597FB072E48
:1022300016F4009407D077FD09D00E945A1107FCCC
:1022400005D03EF4909581959F4F089570956195C6
:102250007F4F0895A1E21A2EAA1BBB1BFD010DC0E2
:10226000AA1FBB1FEE1FFF1FA217B307E407F50746
:1022700020F0A21BB30BE40BF50B661F771F881F22
:10228000991F1A9469F760957095809590959B01B8
:10229000AC01BD01CF010895EE0FFF1F0590F49131
:1022A000E02D0994B7FF0C949D0F0E949D0F821B97
:1022B000930B0895AA1BBB1B51E107C0AA1FBB1FAC
:1022C000A617B70710F0A61BB70B881F991F5A95C2
:1022D000A9F780959095BC01CD0108950F931F93A8
:1022E000CF93DF938230910510F482E090E0E0918B
:1022F0009203F091930330E020E0B0E0A0E030974B
:1023000099F42115310509F44AC0281B390B2430F2
:102310003105D8F58A819B816115710589F1FB0131
:1023200093838283FE0111C0408151810281138118
:1023300048175907E0F04817590799F4109761F0CA
:1023400012960C93129713961C933296CF01DF913D
:10235000CF911F910F9108950093920310939303CF
:10236000F4CF2115310551F04217530738F0A90178
:10237000DB019A01BD01DF01F801C1CFEF01F9CF07
:102380009093930380939203CDCFFE01E20FF31F4E
:10239000819391932250310939832883D7CF20919B
:1023A000900330919103232B41F42091020130914D
:1023B0000301309391032093900320910001309109
:1023C00001012115310541F42DB73EB740910401BB
:1023D00050910501241B350BE0919003F09191037E
:1023E000E217F307A0F42E1B3F0B2817390778F0EC
:1023F000AC014E5F5F4F2417350748F04E0F5F1F4B
:102400005093910340939003819391939FCFF0E079
:10241000E0E09CCFCF93DF930097E9F0FC01329787
:1024200013821282A0919203B0919303ED0130E0E8
:1024300020E01097A1F420813181820F931F209119
:102440009003309191032817390709F061C0F09388
:102450009103E0939003DF91CF910895EA01CE17A5
:10246000DF07E8F54A815B819E0141155105B1F70F
:10247000E901FB83EA8349915991C40FD51FEC17F9
:10248000FD0761F4808191810296840F951FE90117
:1024900099838883828193819B838A83F0E0E0E043
:1024A00012968D919C9113970097B9F52D913C91BF
:1024B0001197CD010296820F931F209190033091C6
:1024C00091032817390739F6309751F51092930385
:1024D00010929203B0939103A0939003BCCFD38347
:1024E000C28340815181840F951FC817D90761F4B9
:1024F0004E5F5F4F88819981480F591F51834083F8
:102500008A819B81938382832115310509F0B0CFA5
:10251000F0939303E09392039ECFFD01DC01C0CFC3
:1025200013821282D7CFB0E0A0E0E9E9F2E10C9487
:10253000AA0F8C01009751F4CB010E946E118C01FF
:10254000C801CDB7DEB7E0E10C94C60FFC01E60F81
:10255000F71F9C0122503109E217F30708F49DC0D0
:10256000D901CD91DC911197C617D70798F0C530E6
:10257000D10530F3CE0104978617970708F3C61BE1
:10258000D70B2297C193D1936D937C93CF010E9477
:102590000A12D6CF5B01AC1ABD0A4C018C0E9D1EEF
:1025A000A0919203B0919303512C412CF12CE12C7A
:1025B000109731F5809190039091910388159905BA
:1025C00009F05CC04616570608F058C0809100011B
:1025D00090910101009741F48DB79EB7409104019D
:1025E00050910501841B950BE817F90708F055C0B9
:1025F000F0939103E0939003F90171836083A0CF7E
:102600008D919C91119712966C90129713967C90D5
:102610001397A815B90559F56C0142E0C40ED11CF9
:10262000CA14DB0420F1AC014A195B09DA011296E5
:10263000159780F06282738251834083D9016D9334
:102640007C93E114F10471F0D7011396FC93EE939F
:10265000129776CF22968C0F9D1FF901918380836C
:10266000F301EFCFF0939303E093920369CF481601
:10267000590608F42C017D01D3019ACFCB010E94A9
:102680006E117C01009749F0AE01B8010E94501311
:10269000C8010E940A12870153CF10E000E050CF1A
:1026A000FB01DC0102C001900D9241505040D8F76F
:1026B0000895FB01DC0101900D920020E1F70895DF
:1026C00010E0C2E6D0E004C0FE010E944C11219649
:0A26D000C336D107C9F7F894FFCF15
:1026DA00000094038000000000003E029E01CB012E
:1026EA008B02FC01DA01EE0100000000A8039E0142
:1026FA003E04A70304041C048F03000000008305A2
:10270A009E013E043D046E616E00696E66006F763E
:10271A0066000D0A004E6F2052616E676520202008
:10272A00202020004E6F2052616E676520202020F5
:10273A00200053696D706C652054696E7947505357
:10274A00206C69627261727920762E20005465735A
:10275A0074696E67204750530056656869636C65F3
:10276A0020547261636B696E6700202020205379C0
:10277A007374656D202020202020004750524D435D
:10278A00004750474741002020204C617469747506
:10279A006465203D20002020204C6F6E67697475A7
:1027AA006465203D20006C61746974756465006C11
:0A27BA006F6E6769747564650000B6
:107E0000112484B714BE81FFF0D085E080938100F7
:107E100082E08093C00088E18093C10086E0809377
:107E2000C20080E18093C4008EE0C9D0259A86E02C
:107E300020E33CEF91E0309385002093840096BBD3
:107E4000B09BFECF1D9AA8958150A9F7CC24DD24C4
:107E500088248394B5E0AB2EA1E19A2EF3E0BF2EE7
:107E6000A2D0813461F49FD0082FAFD0023811F036
:107E7000013811F484E001C083E08DD089C08234E0
:107E800011F484E103C0853419F485E0A6D080C0E4
:107E9000853579F488D0E82EFF2485D0082F10E0AE
:107EA000102F00270E291F29000F111F8ED06801E7
:107EB0006FC0863521F484E090D080E0DECF843638
:107EC00009F040C070D06FD0082F6DD080E0C81688
:107ED00080E7D80618F4F601B7BEE895C0E0D1E017
:107EE00062D089930C17E1F7F0E0CF16F0E7DF06D8
:107EF00018F0F601B7BEE89568D007B600FCFDCFD4
:107F0000A601A0E0B1E02C9130E011968C91119780
:107F100090E0982F8827822B932B1296FA010C0160
:107F200087BEE89511244E5F5F4FF1E0A038BF0790
:107F300051F7F601A7BEE89507B600FCFDCF97BE46
:107F4000E89526C08437B1F42ED02DD0F82E2BD052
:107F50003CD0F601EF2C8F010F5F1F4F84911BD097
:107F6000EA94F801C1F70894C11CD11CFA94CF0C13
:107F7000D11C0EC0853739F428D08EE10CD085E9AC
:107F80000AD08FE07ACF813511F488E018D01DD067
:107F900080E101D065CF982F8091C00085FFFCCF94
:107FA0009093C60008958091C00087FFFCCF809118
:107FB000C00084FD01C0A8958091C6000895E0E648
:107FC000F0E098E1908380830895EDDF803219F02E
:107FD00088E0F5DFFFCF84E1DECF1F93182FE3DFCA
:107FE0001150E9F7F2DF1F91089580E0E8DFEE27F6
:047FF000FF270994CA
:027FFE00040479
:0400000300007E007B
:00000001FF
