:100000000C9435000C945D000C945D000C945D0024
:100010000C945D000C945D000C945D000C945D00EC
:100020000C945D000C945D000C945D000C945D00DC
:100030000C945D000C945D000C945D000C945D00CC
:100040000C940E040C945D000C94DC030C94B60329
:100050000C945D000C945D000C945D000C945D00AC
:100060000C945D000C945D00580411241FBECFEF6A
:10007000D8E0DEBFCDBF11E0A0E0B1E0EEE5F7E1F2
:1000800002C005900D92A437B107D9F722E0A4E78A
:10009000B1E001C01D92AD38B207E1F710E0C5E351
:1000A000D0E004C02197FE010E94850BC433D10724
:1000B000C9F70E94E3040C94AD0B0C9400000F935D
:1000C0001F93CF93DF93C0917002E1E7F2E0CD324E
:1000D00011F0E0E7F2E08F0120E030E0A901D80163
:1000E000DD918D0180ED8D0F8A3090F4AAE0B0E0B3
:1000F0000E948B0B2D2FDD0F330B440B550B260F5E
:10010000371F481F591F2053310941095109E7CFB3
:10011000A4E6B0E00E948B0BAB01BC01DF01819132
:1001200090ED980F9A30D0F38E3259F511968C914C
:10013000119790ED980F9A3020F5082E000C990B2E
:10014000C0972AE0289F8001299F100D1124012EBD
:10015000000C220B330B400F511F621F731F1296AE
:100160008C9190ED980F9A3060F4082E000C990B4A
:10017000C097092E000CAA0BBB0B480F591F6A1F12
:100180007B1FCD3239F470956095509541955F4F46
:100190006F4F7F4FCB01BA01DF91CF911F910F912C
:1001A00008954F925F926F927F928F929F92AF923B
:1001B000BF92CF92DF92EF92FF921F93CF93DF9384
:1001C000C0E7D2E0FE01C12CD12C7601119180ED67
:1001D000810F8A30A8F4AAE0B0E0A70196010E943E
:1001E0008B0BC12E110FDD08EE08FF08C60ED71EBF
:1001F000E81EF91E80E3C81AD108E108F108E6CF2D
:10020000C701B60124E630E040E050E00E94630BF5
:100210009B01AC0160EA76E881E090E00E94530B1C
:100220004B015C019E01899190ED980F9A30D0F3BB
:100230008E3221F5E901219680E1482E87E2582E81
:10024000612C712CA99180ED8A0F8A30B8F40A2EA6
:10025000000CBB0BD097A30192010E94960B860E57
:10026000971EA81EB91EC301B2012AE030E040E08B
:1002700050E00E94630B29013A01E4CFC701B601A7
:1002800024E630E040E050E00E94630B60E472E45A
:100290008FE090E00E94530B6B017C01C501B4011B
:1002A0006D5F7F4F8F4F9F4F26E030E040E050E082
:1002B0000E94630BC701B601620F731F841F951F55
:1002C000DF91CF911F91FF90EF90DF90CF90BF9083
:1002D000AF909F908F907F906F905F904F90089518
:1002E000AF92BF92CF92DF92EF92FF920F931F9344
:1002F000CF93DF936C017B018B01040F151FEB0182
:100300005E01AE18BF08C017D10759F06991D60138
:10031000ED91FC910190F081E02DC6010995892BAA
:1003200079F7C501DF91CF911F910F91FF90EF9069
:10033000DF90CF90BF90AF900895FC01538D448D16
:10034000252F30E0842F90E0821B930B541710F080
:10035000CF96089501970895FC01918D828D98178D
:1003600061F0A28DAE0FBF2FB11D5D968C91928D65
:100370009F5F9F73928F90E008958FEF9FEF089596
:10038000FC01918D828D981731F0828DE80FF11D5F
:10039000858D90E008958FEF9FEF0895FC01918D7A
:1003A000228D892F90E0805C9F4F821B91098F7373
:1003B000992708958DE791E00E94CE0121E0892BD5
:1003C00009F420E0822F089580E090E0892B29F045
:1003D0000E94DA0181110C9400000895FC01A48DA3
:1003E000A80FB92FB11DA35ABF4F2C91848D90E057
:1003F00001968F739927848FA689B7892C93A0893A
:10040000B1898C91837080648C93938D848D9813C3
:1004100006C00288F389E02D80818F7D8083089556
:10042000EF92FF920F931F93CF93DF93EC0181E044
:10043000888F9B8D8C8D98131AC0E889F9898081EB
:1004400085FF15C09FB7F894EE89FF896083E8891E
:10045000F98980818370806480839FBF81E090E010
:10046000DF91CF911F910F91FF90EF900895F62E9D
:100470000B8D10E00F5F1F4F0F731127E02E8C8D37
:100480008E110CC00FB607FCFACFE889F98980817C
:1004900085FFF5CFCE010E94EE01F1CFEB8DEC0F81
:1004A000FD2FF11DE35AFF4FF0829FB7F8940B8F99
:1004B000EA89FB8980818062CFCFCF93DF93EC0103
:1004C000888D8823B9F0AA89BB89E889F9898C913C
:1004D00085FD03C0808186FD0DC00FB607FCF7CFF8
:1004E0008C9185FFF2CF808185FFEDCFCE010E94F8
:1004F000EE01E9CFDF91CF9108952FB7F894609185
:10050000790170917A0180917B0190917C012FBFDC
:100510000895FC0101900020E9F73197AF01481BD5
:10052000590BBC018DE791E00C9470018F929F9262
:10053000AF92BF920F931F93CF93DF93CDB7DEB7E8
:10054000A1970FB6F894DEBF0FBECDBF19A24230FF
:1005500008F44AE08E010F5D1F4F842E912CB12CC0
:10056000A12CA50194010E94630BE62FB901CA01D9
:10057000EA30F4F4E05DD801EE938D01232B242BB7
:10058000252B79F790E080E0109719F0CD010E94BB
:100590008902A1960FB6F894DEBF0FBECDBFDF91E2
:1005A000CF911F910F91BF90AF909F908F90089522
:1005B000E95CE1CF4F925F926F927F928F929F9210
:1005C000AF92BF92CF92DF92EF92FF920F931F9361
:1005D000CF936B017C01742EAC019B010E944E0BEA
:1005E000882399F082E191E0CF911F910F91FF90C4
:1005F000EF90DF90CF90BF90AF909F908F907F90C3
:100600006F905F904F900C94890246015701E894D7
:10061000B7F82FEF3FEF4FE75FE7C501B4010E9446
:100620004E0B81110DC02FEF3FEF4FE75FE7C50184
:10063000B4010E94840918161CF486E191E0D4CF1D
:100640002FEF3FEF4FE75FE4C701B6010E94DC0ADE
:1006500018161CF48AE191E0C7CF2FEF3FEF4FE768
:100660005FECC701B6010E94840987FDF3CF20E04B
:1006700030E0A901C701B6010E94840910E000E042
:1006800087FF0AC06DE28DE791E00E9410028C01A5
:10069000F7FAF094F7F8F094C0E060E070E080E0E2
:1006A0009FE37C1641F020E030E040E251E40E94FC
:1006B0008909CF5FF6CFA70196010E9418092B0187
:1006C0003C010E94FB094B015C014AE00E9496023A
:1006D0007C01E00EF11ECC23C1F1C501B4010E94E2
:1006E0002A0A9B01AC01C301B2010E9417094B0108
:1006F0005C016EE28DE791E00E941002E80EF91EA7
:10070000C15018F120E030E040E251E4C501B401ED
:100710000E94E10A2B013C010E94FB094B01B12C14
:10072000A12C4AE0C501B4010E949602E80EF91E10
:10073000C501B4010E942A0A9B01AC01C301B201A8
:100740000E9417094B015C01DBCFC701CF911F91BC
:100750000F91FF90EF90DF90CF90BF90AF909F9060
:100760008F907F906F905F904F9008951F920F929F
:100770000FB60F9211242F933F934F935F936F9374
:100780007F938F939F93AF93BF93EF93FF938DE7E7
:1007900091E00E94EE01FF91EF91BF91AF919F9187
:1007A0008F917F916F915F914F913F912F910F901A
:1007B0000FBE0F901F9018951F920F920FB60F92B9
:1007C00011242F938F939F93EF93FF93E0918D01CB
:1007D000F0918E018081E0919301F091940182FD6E
:1007E0001BC09081809196018F5F8F73209197013C
:1007F000821741F0E0919601F0E0E358FE4F958FAB
:1008000080939601FF91EF919F918F912F910F907F
:100810000FBE0F901F9018958081F4CF1F920F92FA
:100820000FB60F9211242F933F938F939F93AF9303
:10083000BF938091790190917A01A0917B01B09151
:100840007C013091780123E0230F2D3758F5019674
:10085000A11DB11D209378018093790190937A01B5
:10086000A0937B01B0937C018091740190917501FC
:10087000A0917601B09177010196A11DB11D8093E1
:10088000740190937501A0937601B0937701BF91A5
:10089000AF919F918F913F912F910F900FBE0F902D
:1008A0001F90189526E8230F0296A11DB11DD2CFE7
:1008B000EDE7F1E01382128288EE93E0A0E0B0E071
:1008C00084839583A683B78384E091E091838083BA
:1008D00085EC90E09587848784EC90E09787868705
:1008E00080EC90E0918B808B81EC90E0938B828BFD
:1008F00082EC90E0958B848B86EC90E0978B868BD6
:10090000118E128E138E148EEAE1F2E04FEF5FEF3C
:10091000BA014083518362837383108611861286E5
:1009200013868FEF99ECAAE9BBE3808B918BA28BA6
:10093000B38B808F918FA28FB38F80A391A3A2A33B
:10094000B3A380A791A7A2A7B3A780AB91ABA2AB9B
:10095000B3AB40AF51AF62AF73AF8FEF90E0909306
:100960005B0280935A0240935E0250935F02609351
:100970006002709361024093660250936702609335
:1009800068027093690210926E0210926F0282E008
:1009900080937F0210928002109281021092820254
:1009A00010928302109284021092850210928602A5
:1009B000109288021092870210928A021092890285
:1009C000109270020895789484B5826084BD84B5D5
:1009D000816084BD85B5826085BD85B5816085BD3A
:1009E00080916E00816080936E00109281008091F2
:1009F000810082608093810080918100816080937A
:100A00008100809180008160809380008091B1009E
:100A100084608093B1008091B00081608093B000C9
:100A200080917A00846080937A0080917A0082605D
:100A300080937A0080917A00816080937A0080911F
:100A40007A00806880937A001092C100E0918D0155
:100A5000F0918E0182E08083E0918901F0918A011A
:100A60001082E0918B01F0918C018FEC80831092C9
:100A70009501E0919101F091920186E08083E091EF
:100A80008F01F0919001808180618083E0918F01DE
:100A9000F0919001808188608083E0918F01F091D6
:100AA0009001808180688083E0918F01F0919001B6
:100AB00080818F7D80838EE191E00E9489024AE0EF
:100AC0006DE070E080E090E00E94960289E391E0A2
:100AD0000E9489028CE391E00E94890289E391E0FF
:100AE0000E94890289E391E00E94890290E0E92E48
:100AF00090E0F92ED2E001E00E947D024B015C0102
:100B000010E00E947D02681979098A099B09683EF4
:100B100073408105910508F45CC1112309F471C08B
:100B200040902A0250902B0260902C0270902D026F
:100B30008090320290903302A0903402B09035023F
:100B40008091660290916702A0916802B09169025B
:100B50008F3F9F4FAF4FBF4F11F00E947D02FFEFBD
:100B60004F16F9EC5F06FAE96F06FBE37F0609F41E
:100B700029C3C301B2010E942C0A20E034E244E7F9
:100B800059E40E9489092B013C01C501B4010E946E
:100B90002C0A20E034E244E759E40E9489094B0121
:100BA0005C0184E591E00E94890220E030E04AE7A0
:100BB00054E4C301B2010E948409811103C0412C95
:100BC000512C320146E0C301B2010E94DA0283E6F1
:100BD00091E00E94890220E030E04AE754E4C50138
:100BE000B4010E948409811103C0812C912C54010D
:100BF00046E0C501B4010E94DA0289E391E00E9457
:100C00008902E114F10409F477CF0E94DA01882304
:100C100009F472CF0E9400006FCFCA3209F405C1F7
:100C2000CC3209F0BBC280916E028C2780936E0299
:100C3000FCC090918002F0E0E059FD4F1082D0900E
:100C40006F02DD2009F46AC120917002822F022E0A
:100C5000000C990B3FEB320F363008F0EBC0C79712
:100C60008295807F90917102292F092E000C330B01
:100C70004FEB490F463008F0E5C027533109820F8A
:100C800090916E02891340C1D0908202DD2009F458
:100C9000CFC080918702909188020196909388023C
:100CA000809387028091620290916302A091640216
:100CB000B091650280935E0290935F02A093600200
:100CC000B093610280916A0290916B02A0916C02D4
:100CD000B0916D028093660290936702A0936802C0
:100CE000B093690280917F02882309F4B4C08130F7
:100CF00009F060C080911E0290911F02A091200215
:100D0000B091210280931A0290931B02A0931C02BF
:100D1000B0931D028091260290912702A091280293
:100D2000B09129028093220290932302A09324027F
:100D3000B093250280912E0290912F02A091300253
:100D4000B091310280932A0290932B02A0932C023F
:100D5000B0932D028091360290913702A091380213
:100D6000B09139028093320290933302A0933402FF
:100D7000B09335028091460290914702A0914802BB
:100D8000B09149028093420290934302A09344029F
:100D9000B093450280914E0290914F02A091500273
:100DA000B091510280934A0290934B02A0934C025F
:100DB000B0934D02809180028F5F809380021092E9
:100DC000810281E0CA3209F080E080936F02D11085
:100DD0001D2D8DE791E00E94CE01892B09F491CE63
:100DE0008DE791E00E94AC01C82F80918302909121
:100DF0008402A0918502B09186020196A11DB11DC9
:100E00008093830290938402A0938502B09386021C
:100E1000C43209F4B6C1E0918102C5320CF0FDCEB6
:100E2000CA3019F0CD3009F0B9C1EF3008F401CF64
:100E3000D12CC0CF2156263018F48755910910CFF8
:100E4000C0970ECF9156963018F42755310917CF19
:100E50002053310914CF80913E0290913F02A0911E
:100E60004002B091410280933A0290933B02A093DA
:100E70003C02B0933D0280911E0290911F02A0910E
:100E80002002B091210280931A0290931B02A0933A
:100E90001C02B0931D0280912E0290912F02A0910E
:100EA0003002B091310280932A0290932B02A093DA
:100EB0002C02B0932D028091360290913702A091BE
:100EC0003802B09139028093320290933302A0939A
:100ED0003402B093350280915C0290915D02909350
:100EE0005B0280935A028091560290915702A09122
:100EF0005802B09159028093520290935302A093EA
:100F00005402B093550256CF8091890290918A0283
:100F1000019690938A02809389028ACF91111CC016
:100F2000A0E7B2E048E451E0CD01FC012191CF01FE
:100F3000222309F450C1FA013191AF012317A9F31B
:100F4000EEE4F1E08D91882309F448C1919189176D
:100F5000C9F3D0937F022ECFE0917F02E23009F4F3
:100F600067CF80917002882309F462CF20E2E29F6C
:100F7000F0011124E92B3197E932F10508F01ACF7D
:100F8000EC53F84F0C94850B0A0825083A085508CD
:100F900060089A08A108AB08B608DA06DA06DA068D
:100FA000DA06DA06DA06DA06DA06DA06DA06DA0641
:100FB000DA06DA06DA06DA06DA06DA06DA06DA0631
:100FC000DA06DA06DA06DA060A081F0825083A08F9
:100FD000550860087B088608ED07E0E7F2E020E0AE
:100FE00030E0A901C19080ED8C0D8A3008F099C0E5
:100FF000AAE0B0E00E948B0B2C2DCC0C330B440BE1
:10100000550B260F371F481F591F2053310941091F
:101010005109E8CF0E945F0060931E0270931F0287
:1010200080932002909321020E947D0260936202CD
:10103000709363028093640290936502BBCE91E04B
:10104000813409F47BC090E079C00E94D1006093A4
:101050002E0270932F0280933002909331020E94EF
:101060007D0260936A0270936B0280936C0290938E
:101070006D02A0CE833509F0DBCE80912E029091D7
:101080002F02A0913002B0913102B095A0959095B9
:1010900081959F4FAF4FBF4F80932E0290932F02A9
:1010A000A0933002B093310285CE0E94D1006093AC
:1010B00036027093370280933802909339027ACEC9
:1010C000873509F0B5CE8091360290913702A09114
:1010D0003802B0913902B095A095909581959F4FB7
:1010E000AF4FBF4F8093360290933702A0933802E0
:1010F000B09339025FCE0E945F0060934602709306
:101100004702809348029093490254CE0E945F00A8
:1011100060934E0270934F0280935002909351025D
:1011200049CE209326023093270240932802509301
:10113000290240CE91E081330CF485CF9093820256
:1011400039CE80E792E00E94F108992790935D02E2
:1011500080935C022FCE0E945F00609356027093D2
:101160005702809358029093590224CE0E945F0048
:1011700060933E0270933F0280934002909341023D
:1011800019CE109281021092800210926E02D093BA
:101190007F0210926F02109282021BCEEE3040F45A
:1011A00081E08E0F80938102F0E0E059FD4FC08313
:1011B00080916F0281110DCE80916E02C827C0937D
:1011C0006E0207CE412C512C8AE7682E84E4782EDB
:1011D00053014201E6CC00937F02ECCD10927F02D6
:1011E000E9CDFC0188279927E89421912032E9F381
:1011F000293010F02E30C8F32B3241F02D3239F463
:10120000689404C00E940F09820F911D2191205300
:101210002A30C0F31EF4909581959F4F08957AE08F
:10122000979F902D879F802D910D112408955058E0
:10123000BB27AA270E942F090C94A20A0E94940A95
:1012400038F00E949B0A20F039F49F3F19F426F4ED
:101250000C94910A0EF4E095E7FB0C948B0AE92FAD
:101260000E94B30A58F3BA176207730784079507F9
:1012700020F079F4A6F50C94D50A0EF4E0950B2E27
:10128000BA2FA02D0B01B90190010C01CA01A001D8
:101290001124FF27591B99F0593F50F4503E68F133
:1012A0001A16F040A22F232F342F4427585FF3CF74
:1012B000469537952795A795F0405395C9F77EF445
:1012C0001F16BA0B620B730B840BBAF09150A1F08E
:1012D000FF0FBB1F661F771F881FC2F70EC0BA0F14
:1012E000621F731F841F48F4879577956795B7959C
:1012F000F7959E3F08F0B0CF9395880F08F0992797
:10130000EE0F9795879508950E94670A08F481E08B
:1013100008950E949D090C94A20A0E949B0A58F00D
:101320000E94940A40F029F45F3F29F00C948B0A44
:1013300051110C94D60A0C94910A0E94B30A68F3D6
:101340009923B1F3552391F3951B550BBB27AA277E
:1013500062177307840738F09F5F5F4F220F331FB8
:10136000441FAA1FA9F335D00E2E3AF0E0E832D080
:1013700091505040E695001CCAF72BD0FE2F29D083
:10138000660F771F881FBB1F261737074807AB0755
:10139000B0E809F0BB0B802DBF01FF2793585F4FCA
:1013A0003AF09E3F510578F00C948B0A0C94D60AC3
:1013B0005F3FE4F3983ED4F3869577956795B795AC
:1013C000F7959F5FC9F7880F911D9695879597F9B7
:1013D0000895E1E0660F771F881FBB1F6217730730
:1013E0008407BA0720F0621B730B840BBA0BEE1F45
:1013F00088F7E09508950E94BB0A88F09F5798F0FF
:10140000B92F9927B751B0F0E1F0660F771F881F09
:10141000991F1AF0BA95C9F714C0B13091F00E9423
:10142000D50AB1E008950C94D50A672F782F882744
:10143000B85F39F0B93FCCF3869577956795B3954A
:10144000D9F73EF490958095709561957F4F8F4FB9
:101450009F4F0895E89409C097FB3EF490958095BE
:10146000709561957F4F8F4F9F4F9923A9F0F92F6A
:1014700096E9BB279395F695879577956795B795E8
:10148000F111F8CFFAF4BB0F11F460FF1BC06F5FCE
:101490007F4F8F4F9F4F16C0882311F096E911C0E0
:1014A000772321F09EE8872F762F05C0662371F001
:1014B00096E8862F70E060E02AF09A95660F771F15
:1014C000881FDAF7880F9695879597F90895990FF1
:1014D0000008550FAA0BE0E8FEEF16161706E807FE
:1014E000F907C0F012161306E407F50798F0621B1F
:1014F000730B840B950B39F40A2661F0232B242BF4
:10150000252B21F408950A2609F4A140A6958FEF12
:10151000811D811D089597F99F6780E870E060E064
:1015200008959FEF80EC089500240A94161617067C
:1015300018060906089500240A94121613061406C4
:1015400005060895092E0394000C11F4882352F027
:10155000BB0F40F4BF2B11F460FF04C06F5F7F4FDF
:101560008F4F9F4F089557FD9058440F551F59F0C6
:101570005F3F71F04795880F97FB991F61F09F3F80
:1015800079F087950895121613061406551FF2CFA9
:101590004695F1DF08C0161617061806991FF1CFF9
:1015A00086957105610508940895E894BB27662720
:1015B0007727CB0197F908950E94670A08F48FEF07
:1015C00008950E94F40A0C94A20A0E94940A38F02A
:1015D0000E949B0A20F0952311F00C948B0A0C9426
:1015E000910A11240C94D60A0E94B30A70F3959FB5
:1015F000C1F3950F50E0551F629FF001729FBB270A
:10160000F00DB11D639FAA27F00DB11DAA1F649FA5
:101610006627B00DA11D661F829F2227B00DA11D58
:10162000621F739FB00DA11D621F839FA00D611DDE
:10163000221F749F3327A00D611D231F849F600DFF
:10164000211D822F762F6A2F11249F5750409AF028
:10165000F1F088234AF0EE0FFF1FBB1F661F771FB4
:10166000881F91505040A9F79E3F510580F00C947F
:101670008B0A0C94D60A5F3FE4F3983ED4F3869528
:1016800077956795B795F795E7959F5FC1F7FE2B1F
:10169000880F911D9695879597F908950E94670A7E
:1016A000880B990B0895DB018F939F930E948B0BFE
:1016B000BF91AF91A29F800D911DA39F900DB29FEE
:1016C000900D11240895A1E21A2EAA1BBB1BFD0147
:1016D0000DC0AA1FBB1FEE1FFF1FA217B307E40711
:1016E000F50720F0A21BB30BE40BF50B661F771F69
:1016F000881F991F1A9469F7609570958095909549
:101700009B01AC01BD01CF010895EE0FFF1F0590B5
:10171000F491E02D09940E949E0BA59F900DB49F1B
:10172000900DA49F800D911D11240895B7FF0C9476
:101730008B0B0E948B0B821B930B0895A29FB00111
:10174000B39FC001A39F700D811D1124911DB29FF5
:0E175000700D811D1124911D0895F894FFCF96
:10175E0000000000100270019D015D02CE01AC017F
:10176E00C0016E616E00696E66006F766600536929
:10177E006D706C652054696E79475053206C6962A8
:10178E007261727920762E20000D0A0054657374F2
:10179E00696E6720475053004750524D43004750E3
:1017AE00474741002020204C6174697475646520A0
:1017BE003D20002020204C6F6E6769747564652093
:0417CE003D200000BA
:107E0000112484B714BE81FFF0D085E080938100F7
:107E100082E08093C00088E18093C10086E0809377
:107E2000C20080E18093C4008EE0C9D0259A86E02C
:107E300020E33CEF91E0309385002093840096BBD3
:107E4000B09BFECF1D9AA8958150A9F7CC24DD24C4
:107E500088248394B5E0AB2EA1E19A2EF3E0BF2EE7
:107E6000A2D0813461F49FD0082FAFD0023811F036
:107E7000013811F484E001C083E08DD089C08234E0
:107E800011F484E103C0853419F485E0A6D080C0E4
:107E9000853579F488D0E82EFF2485D0082F10E0AE
:107EA000102F00270E291F29000F111F8ED06801E7
:107EB0006FC0863521F484E090D080E0DECF843638
:107EC00009F040C070D06FD0082F6DD080E0C81688
:107ED00080E7D80618F4F601B7BEE895C0E0D1E017
:107EE00062D089930C17E1F7F0E0CF16F0E7DF06D8
:107EF00018F0F601B7BEE89568D007B600FCFDCFD4
:107F0000A601A0E0B1E02C9130E011968C91119780
:107F100090E0982F8827822B932B1296FA010C0160
:107F200087BEE89511244E5F5F4FF1E0A038BF0790
:107F300051F7F601A7BEE89507B600FCFDCF97BE46
:107F4000E89526C08437B1F42ED02DD0F82E2BD052
:107F50003CD0F601EF2C8F010F5F1F4F84911BD097
:107F6000EA94F801C1F70894C11CD11CFA94CF0C13
:107F7000D11C0EC0853739F428D08EE10CD085E9AC
:107F80000AD08FE07ACF813511F488E018D01DD067
:107F900080E101D065CF982F8091C00085FFFCCF94
:107FA0009093C60008958091C00087FFFCCF809118
:107FB000C00084FD01C0A8958091C6000895E0E648
:107FC000F0E098E1908380830895EDDF803219F02E
:107FD00088E0F5DFFFCF84E1DECF1F93182FE3DFCA
:107FE0001150E9F7F2DF1F91089580E0E8DFEE27F6
:047FF000FF270994CA
:027FFE00040479
:0400000300007E007B
:00000001FF
