:100000000C9463000C948B000C948B000C94B2073E
:100010000C94B2070C94B2070C948B000C948B00D8
:100020000C948B000C948B000C948B000C948B0024
:100030000C948B000C948B000C948B000C948B0014
:100040000C9468070C948B000C9436070C941007E2
:100050000C948B000C948B000C948B000C948B00F4
:100060000C948B000C948B000000000024002700EF
:100070002A0000000008000201000003040700003D
:1000800000000000000000000000230026002900FE
:1000900000000000250028002B00040404040404D0
:1000A0000404020202020202030303030303010227
:1000B00004081020408001020408102001020408F6
:1000C00010202A08DA0B11241FBECFEFD8E0DEBFC4
:1000D000CDBF24E0ACE1B3E001C01D92A935B20769
:1000E000E1F713E0A0E0B1E0ECECFCE102C0059028
:1000F0000D92AC31B107D9F710E0C2E6D0E004C0F0
:100100002197FE010E94610CC136D107C9F70E94F8
:100110001C090C94590E0C940000FC0124813581BB
:100120006217730720F480819181009729F410925F
:10013000640384E693E00895860F971F0895AF92B5
:10014000BF92CF92DF92EF92FF920F931F93CF93C4
:10015000DF936C017B018B01040F151FEB015E0126
:10016000AE18BF08C017D10759F06991D601ED91BB
:10017000FC910190F081E02DC6010995892B79F75A
:10018000C501DF91CF911F910F91FF90EF90DF900C
:10019000CF90BF90AF900895FC01538D448D252FD3
:1001A00030E0842F90E0821B930B541710F0CF9611
:1001B000089501970895FC01918D828D981761F043
:1001C000A28DAE0FBF2FB11D5D968C91928D9F5F5A
:1001D0009F73928F90E008958FEF9FEF0895FC0139
:1001E000918D828D981731F0828DE80FF11D858DEC
:1001F00090E008958FEF9FEF0895FC01918D228D7F
:10020000892F90E0805C9F4F821B91098F73992703
:1002100008958FE693E00E94FD0021E0892B09F408
:1002200020E0822F0895FC01A48DA80FB92FB11DE5
:10023000A35ABF4F2C91848D90E001968F7399271C
:10024000848FA689B7892C93A089B1898C918370FA
:1002500080648C93938D848D981306C00288F389F3
:10026000E02D80818F7D80830895EF92FF920F9320
:100270001F93CF93DF93EC0181E0888F9B8D8C8D52
:1002800098131AC0E889F989808185FF15C09FB746
:10029000F894EE89FF896083E889F9898081837009
:1002A000806480839FBF81E090E0DF91CF911F91B8
:1002B0000F91FF90EF900895F62E0B8D10E00F5FD9
:1002C0001F4F0F731127E02E8C8D8E110CC00FB6AF
:1002D00007FCFACFE889F989808185FFF5CFCE0147
:1002E0000E941301F1CFEB8DEC0FFD2FF11DE35AAE
:1002F000FF4FF0829FB7F8940B8FEA89FB898081CA
:100300008062CFCFCF93DF93EC01888D8823B9F043
:10031000AA89BB89E889F9898C9185FD03C0808110
:1003200086FD0DC00FB607FCF7CF8C9185FFF2CF8D
:10033000808185FFEDCFCE010E941301E9CFDF91CF
:10034000CF91089590E0FC01EE58FF4F2491FC01FD
:10035000E255FF4F3491FC01E656FF4FE491EE2346
:10036000C9F0222339F0233001F1A8F4213019F12A
:10037000223029F1F0E0EE0FFF1FE057FF4FA5916B
:10038000B4918FB7F894EC91611126C030953E235B
:100390003C938FBF08952730A9F02830C9F024304E
:1003A00049F7809180008F7D03C0809180008F7716
:1003B00080938000DFCF84B58F7784BDDBCF84B599
:1003C0008F7DFBCF8091B0008F778093B000D2CF2C
:1003D0008091B0008F7DF9CF3E2BDACFCF93DF93A2
:1003E00090E0FC01E255FF4F249186569F4FFC019F
:1003F00084918823D1F090E0880F991FFC01E8597F
:10040000FF4FA591B491FC01E057FF4FC591D491E6
:1004100061110EC09FB7F8948C91E22FE0958E2366
:100420008C932881E223E8839FBFDF91CF910895C9
:100430008FB7F894EC91E22BEC938FBFF6CF3FB7D8
:10044000F8948091600390916103A0916203B09150
:10045000630326B5A89B05C02F3F19F00196A11D87
:10046000B11D3FBFBA2FA92F982F8827BC01CD01FE
:10047000620F711D811D911D42E0660F771F881F5D
:10048000991F4A95D1F708958F929F92AF92BF928C
:10049000CF92DF92EF92FF924B015C010E941F020C
:1004A0006B017C010E941F026C197D098E099F0956
:1004B000683E734081059105A8F321E0821A9108F6
:1004C000A108B10888EEC80E83E0D81EE11CF11C1B
:1004D00081149104A104B10429F7FF90EF90DF90FB
:1004E000CF90BF90AF909F908F9008952091670319
:1004F000309168032817390771F490916503809152
:100500006603981741F0E0916503F0E0E15EFC4F6F
:10051000808190E008958FEF9FEF08950895EF9206
:10052000FF920F931F93CF93DF93DC015C96ED90C6
:10053000FC905D97E114F10479F481E090E013966A
:100540009C938E93129790E080E0DF91CF911F9162
:100550000F91FF90EF9008955196ED91FC91529775
:1005600050968C915097982F90950FB75E962C913E
:100570005E97122F127021FD6095F894208111234F
:1005800019F1282B2083E7012197F1F728E0462F66
:1005900050E0308160FF1AC0382B3083E70121978B
:1005A000F1F7BA0175956795215089F7112381F00C
:1005B0008081892380830FBF5C968D919C910197E8
:1005C000F1F781E090E0C1CF2923DCCF3923E5CFDB
:1005D0009081892BEFCF2091670330916803281712
:1005E000390771F4809166032091650390E0805C87
:1005F0009F4F821B910960E470E00E94390C0895BE
:1006000090E080E0089520916703309168032817F7
:100610003907B9F49091650380916603981789F0C2
:10062000E0916503F0E0E15EFC4F8081209165037D
:1006300030E02F5F3F4F2F7333272093650390E007
:1006400008958FEF9FEF0895089590E080E008955A
:10065000CF93DF93EC0160E08E810E94A20161E004
:100660008E810E94A20160E08E810E94A2018BE82F
:1006700091E00197F1F7DF91CF910895CF92DF924A
:10068000EF92FF920F931F93CF93DF936C017C0146
:1006900087E0E80EF11CD0E0C0E0062F10E0B801C2
:1006A0000C2E02C0759567950A94E2F76170F70108
:1006B00081917F010E94A2012196C430D10579F772
:1006C000C601DF91CF911F910F91FF90EF90DF90C6
:1006D000CF900C942803CF92DF92EF92FF920F936A
:1006E0001F93CF93DF93EC01F62E642F8C810E9431
:1006F000A2018D818F3F19F060E00E94A2010F2DB1
:1007000010E08F8584FF25C06E0187E0C80ED11CE4
:10071000F12CE12CB8010E2C02C0759567950A9456
:10072000E2F76170F60181916F010E94A201FFEF73
:10073000EF1AFF0A88E0E816F10461F7CE01DF91B5
:10074000CF911F910F91FF90EF90DF90CF900C947D
:100750002803B80184E0759567958A95E1F7CE0185
:100760000E943E036F2DCE01DF91CF911F910F911B
:10077000FF90EF90DF90CF900C943E0340E0682F05
:100780008DE394E00C946B0381E00E94BE038BE345
:100790009FE10197F1F70895CF93DF93823029F419
:1007A00090914C04986090934C0480935004109264
:1007B000510480E48093520480E18093530480E5E7
:1007C0008093540461E0809141040E94EE01809185
:1007D00042048F3F19F061E00E94EE0161E08091D8
:1007E00043040E94EE01CDE3D4E09E012D5334403A
:1007F00080914C0484FD0BC084E090E02196281782
:10080000390744F461E08E810E94EE01EECF88E06A
:1008100090E0F4CF8BE39DE00197F1F760E08091E9
:1008200041040E94A20160E0809143040E94A20161
:10083000809142048F3F19F060E00E94A2018091F4
:100840004C0484FD34C063E08DE394E00E943E03D9
:10085000CBE4D6E4CE010197F1F763E08DE394E0B9
:100860000E943E032197F1F763E08DE394E00E943C
:100870003E0383E592E00197F1F762E08DE394E0B7
:100880000E943E0380914C0480620E94BE0384E07B
:1008900080934D048CE00E94BE030E94C40382E05A
:1008A00080934E0486E0DF91CF910C94BE0380626A
:1008B0000E94BE038BE496E40197F1F780914C040B
:1008C00080620E94BE0383E592E00197F1F7809178
:1008D0004C0480620E94BE03D5CFE0915004E23008
:1008E00040F4E150F0E0E35CFB4F848980680C94B5
:1008F000BE03E1E0F7CF41E00E946B0381E090E0AE
:1009000008958F929F92AF92BF92CF92DF92EF9213
:10091000FF920F931F93CF93DF93FC010190002070
:10092000E9F731978F01081B190B7C01D0E0C0E07B
:10093000A9F430E020E081E0232B09F080E0DF9192
:10094000CF911F910F91FF90EF90DF90CF90BF90CC
:10095000AF909F908F900895C1E0D0E02FB7F894AA
:1009600080916B0390916C03A0916D03B0916E0325
:100970002FBF8093770390937803A0937903B0936C
:100980007A038FE693E00E94DB0097FF54C02FB7F5
:10099000F89480916B0390916C03A0916D03B091DA
:1009A0006E032FBF409177035091780360917903D4
:1009B00070917A03841B950BA60BB70B40917303C0
:1009C00050917403609175037091760384179507B5
:1009D000A607B707B0F22FEF3FEFADCF209709F48E
:1009E000BDCF4F01AE012197D4012E914D01022EB2
:1009F000000C330B2817390719F0209799F7AECF61
:100A0000209709F4A9CFB7016F01CC1ADD0A30E0B5
:100A100020E0DB01AD90BD01D601BD906D01AB10B2
:100A200005C02F5F3F4F2C173D0798F3C217D30720
:100A3000C9F6EA0193CFF701EC0FFD1F2081022ECA
:100A4000000C330B2817390749F621960C171D07A0
:100A500009F084CF6ECF8FE693E00E94FD00892BD2
:100A600091F086E391E00E948104882339F081E0CF
:100A700090E090936A0380936903089510926A034B
:100A800010926903E8CF08950E94090181110C9426
:100A90002B050895FB0101900020E9F73197AF0184
:100AA000461B570BDC01ED91FC910280F381E02D98
:100AB0000994FC0144815581608171818FE693E046
:100AC0000E949F0064E471E08FE693E00E944A0573
:100AD00068EC70E080E090E00C944402CF93DF93E8
:100AE000BC018FE693E00E944A05EC0164E471E0EA
:100AF0008FE693E00E944A058C0F9D1FDF91CF91F6
:100B000008950C944A05FC0180819181009711F0B1
:100B10000C94030D08950F931F93CF93DF93EC0173
:100B200088819981009759F02A813B8126173707E0
:100B300030F081E0DF91CF911F910F9108958B01EB
:100B40006F5F7F4F0E948C0D009759F099838883C7
:100B50001B830A832C813D81232B59F7FC011082D2
:100B6000E8CF80E0E7CFEF92FF920F931F93CF93F0
:100B7000DF9300D0CDB7DEB78C0169831A82FC0108
:100B8000E480F580FFEFEF1AFF0AB7010E948B05A2
:100B9000882381F0F8012081318184819581BE0113
:100BA0006F5F7F4F820F931F0E94520EF801F582F4
:100BB000E48281E00F900F90DF91CF911F910F9110
:100BC000FF90EF900895EF92FF920F931F93CF93B2
:100BD000DF93EC017B018A01BA010E948B05288119
:100BE0003981811114C02115310519F0C9010E9404
:100BF000030D198218821D821C821B821A82CE016B
:100C0000DF91CF911F910F91FF90EF9008951D8379
:100C10000C83B701C9010E94520EF1CF50E040E0B1
:100C200066E471E00C94E305CF92DF92EF92FF92BD
:100C30000F931F93CF93DF9310921E03EE24E39440
:100C400080E2F82E80911E038111D0C088E194E0EB
:100C50000E940E068EE194E00E94EB02181619061F
:100C6000D4F5C0901C03D0901D038EE194E00E9447
:100C70000303182F682F88E194E00E94B305E60172
:100C80002196D0931D03C0931C03C730D105E4F413
:100C9000B60188E194E00E948D00FC019081FE0184
:100CA000EA5BFE4F8081981779F010921D03109235
:100CB0001C0388E194E00E940E061D3059F6109244
:100CC0001D0310921C03C6CF1D3021F6C234D1057E
:100CD000B4F3E0921E0380911E03882309F4BACF77
:100CE000C0901C03D0901D0382E194E00E940E0688
:100CF0008CE094E00E940E0610E000E0D0E0C0E03E
:100D0000CC15DD0544F5BE0188E194E00E948D001C
:100D1000FC0180818C3211F40F5F1F4F219602304D
:100D2000110561F4BE0188E194E00E948D00FC0190
:100D3000608182E194E00E94B305E2CF04301105A6
:100D4000F9F6BE0188E194E00E948D00FC0160810B
:100D50008CE094E0F0CF609116047091170461501C
:100D6000710982E194E00E948D00FC01F0826091A3
:100D7000100470911104615071098CE094E00E949C
:100D80008D00FC01F0820E94C4036EE471E08DE3EB
:100D900094E00E94810540911604509117046091DF
:100DA0001204709113048DE394E00E949F000E944E
:100DB0006D0463E571E08DE394E00E94810540914C
:100DC00010045091110460910C0470910D048DE396
:100DD00094E00E949F0010921D0310921C0360ED8E
:100DE00077E080E090E00E9444022CCFDF91CF9129
:100DF0001F910F91FF90EF90DF90CF900895FC012D
:100E0000118210821382128215821482FB010190DA
:100E10000020E9F73197AF01461B570B0C94E3050F
:100E20001F920F920FB60F9211242F933F934F935F
:100E30005F936F937F938F939F93AF93BF93EF9342
:100E4000FF938FE693E00E941301FF91EF91BF9112
:100E5000AF919F918F917F916F915F914F913F9152
:100E60002F910F900FBE0F901F9018951F920F9209
:100E70000FB60F9211242F938F939F93EF93FF93AD
:100E8000E0917F03F09180038081E0918503F091F0
:100E9000860382FD1BC09081809188038F5F8F73D2
:100EA00020918903821741F0E0918803F0E0E15935
:100EB000FC4F958F80938803FF91EF919F918F91C5
:100EC0002F910F900FBE0F901F9018958081F4CF37
:100ED0001F920F920FB60F9211242F933F938F936F
:100EE0009F93AF93BF9380916B0390916C03A091FC
:100EF0006D03B0916E0330915F0323E0230F2D3714
:100F000058F50196A11DB11D20935F0380936B03DB
:100F100090936C03A0936D03B0936E038091600374
:100F200090916103A0916203B09163030196A11DAA
:100F3000B11D8093600390936103A0936203B0930B
:100F40006303BF91AF919F918F913F912F910F902C
:100F50000FBE0F901F90189526E8230F0296A11D33
:100F6000B11DD2CF1F920F920FB60F9211242F9363
:100F70003F934F935F936F937F938F939F93AF9321
:100F8000BF93EF93FF93E0916703F091680330976D
:100F900049F0A685B7858585968D91FF14C09C91F3
:100FA0008923A1F4FF91EF91BF91AF919F918F9110
:100FB0007F916F915F914F913F912F910F900FBE55
:100FC0000F901F9018959C91892361F7A389B4898C
:100FD0009C918589809589238C938689978901972F
:100FE000F1F7608D718DA685B785558538E020E0D5
:100FF000CB010197F1F7822F90E095958795282FE7
:101000004C91452309F02068315091F7868D81FD80
:1010100020958091660390E001968F739927309117
:101020006503381799F0A0916603B0E0A15EBC4F4C
:101030002C9380936603828D938D0197F1F7A3899A
:10104000B4898C919589892B8C93ACCF868D8160E6
:10105000868FF1CFCF92DF92EF92FF9210927203C0
:101060001092710398EEC92E93E0D92EE12CF12C49
:10107000C0927303D0927403E0927503F0927603EA
:101080008AE091E09093700380936F0385EC90E089
:1010900090937C0380937B0384EC90E090937E0399
:1010A00080937D0380EC90E09093800380937F0396
:1010B00081EC90E0909382038093810382EC90E036
:1010C000909384038093830386EC90E0909386034F
:1010D00080938503109288031092890310928A03EB
:1010E00010928B031092400410923F048EE291E024
:1010F00090933E0480933D0487E0809341048FEFFA
:101100008093420486E08093430485E08093440406
:1011100084E08093450483E08093460482E08093DA
:101120004704109248041092490410924A04109205
:101130004B0410924C0481E00E94CC0310922104D5
:1011400010922004C0922204D0922304E09224043E
:10115000F09225048CE191E090931F0480931E048B
:101160001092350410923404109237041092360411
:10117000109239041092380410923B0410923A04F1
:1011800060913C046E7F6D7F60933C046695617056
:1011900081E0682788E00E94A20161E088E00E9467
:1011A000EE01E6EBF0E0E491E0932E04E2EAF0E0F9
:1011B000E491F0E0EE0FFF1FE057FF4F859194910F
:1011C0009093300480932F0460E08BE00E94EE0146
:1011D00080913C0481FD04C061E08BE00E94A2018B
:1011E0008BE080932A04E9EBF0E0E491E0932B0498
:1011F000E5EAF0E0E491F0E0EE0FFF1FEA57FF4F61
:101200008591949190932D0480932C0466E471E071
:1012100088E194E00E94FF0669E571E082E194E0D4
:101220000E94FF0668E671E08CE094E0FF90EF908A
:10123000DF90CF900C94FF06CF93DF9300D000D0C7
:1012400000D0CDB7DEB7789484B5826084BD84B514
:10125000816084BD85B5826085BD85B5816085BDB1
:1012600080916E00816080936E0010928100809169
:1012700081008260809381008091810081608093F1
:101280008100809180008160809380008091B10016
:1012900084608093B1008091B00081608093B00041
:1012A00080917A00846080937A0080917A008260D5
:1012B00080937A0080917A00816080937A00809197
:1012C0007A00806880937A001092C10082E00E94C8
:1012D000CC03E0917F03F091800382E08083E09172
:1012E0007B03F0917C031082E0917D03F0917E03FB
:1012F0008FEC808310928703E0918303F091840345
:1013000086E08083E0918103F09182038081806197
:101310008083E0918103F0918203808188608083E3
:10132000E0918103F0918203808180688083E09165
:101330008103F091820380818F7D80831092390434
:10134000109238041092370410923604109235042B
:10135000109234048DE991E090933B0480933A0419
:1013600090912A04963108F047C02DEB30E030937D
:101370003504209334042BE931E030933704209373
:1013800036042CE231E03093390420933804209164
:10139000680084E0983048F031E09E3008F430E096
:1013A00081E001C0880F3A95EAF7822B80936800AC
:1013B0002DE630E0983050F02BE630E09E3030F0F3
:1013C0002CE630E0963110F030E020E0309332042B
:1013D00020933104292F30E0983008F06CC081E070
:1013E00001C0880F9A95EAF78093330480913A04FC
:1013F00090913B040197F1F7809138049091390462
:10140000892B49F1E0916703F091680384E0EE31A4
:10141000F80709F1309739F0A389B4899C9185893F
:10142000809589238C9380913C048E7F80933C042B
:1014300010926603109265038EE194E09093680326
:1014400080936703E0913104F091320480819091A0
:101450003304892B808366E771E08DE394E00E947A
:1014600081050E946D0467E871E08DE394E00E94BD
:10147000810560ED77E080E090E00E9444020E94E8
:10148000C40368E971E08DE394E00E94810589EA74
:1014900091E00E946E0511E08FE693E00E94FD004E
:1014A00018161906ACF48CEA91E00E948104882396
:1014B00099F310E0F1CF9E3040F42850310981E0DB
:1014C00001C0880F2A95EAF78FCF2E503109F7CF48
:1014D00068EE73E080E090E00E9444021111D7CFE3
:1014E0000E94C4036FEA71E08DE394E00E948105DD
:1014F00068EE73E080E090E00E9444020E94C40322
:1015000062EC71E08DE394E00E94810581ED91E051
:101510000E946E0511E08FE693E00E94FD00181610
:10152000190644F48CEA91E00E948104882399F31F
:1015300010E0F1CF68EE73E080E090E00E9444029A
:101540001111E4CF0E94C40366ED71E08DE394E0D5
:101550000E94810568EE73E080E090E00E94440202
:101560000E94C4036FED71E08DE394E00E94810559
:1015700081EF91E00E946E0511E08FE693E00E94FA
:10158000FD001816190644F48AEF91E00E948104C8
:10159000882399F310E0F1CF68EE73E080E090E0EB
:1015A0000E9444021111E4CF0E94C40367E072E07C
:1015B0008DE394E00E94810568EE73E080E090E0A6
:1015C0000E9444020E94C4030E94C40387E192E087
:1015D0000E946E0569E272E08DE394E00E9481054D
:1015E0000E946D046AE372E08DE394E00E9481053D
:1015F0000E94140660ED77E080E090E00E944402D3
:101600000E94C4036BE472E08DE394E00E948105C4
:101610000E946D046BE572E08DE394E00E94810509
:1016200060ED77E080E090E00E9444020E94C403F5
:1016300068E672E08DE394E00E94810510926A03EF
:10164000109269030E942B058091690390916A03AF
:10165000892B09F4A7C00E94140685E792E00E9436
:101660006E0560E971E080E090E00E9444028FE73F
:1016700092E00E946E0560E971E080E090E00E94D7
:10168000440267E972E0CE0101960E94FF06CE0196
:1016900001960E945905CE0101960E9483056FEACA
:1016A00072E0CE0101960E94FF06CE0101960E94D3
:1016B0005905CE0101960E94830561ED72E08FE627
:1016C00093E00E9481051A8219821C821B821E826D
:1016D0001D8260911204709113046115710541F02F
:1016E0004091160450911704CE0101960E94E30523
:1016F000CE0101960E945905CE0101960E948305F4
:101700006BED72E08FE693E00E9481051A821982E8
:101710001C821B821E821D8260910C0470910D043C
:101720006115710541F04091100450911104CE01F2
:1017300001960E94E305CE0101960E945905CE0153
:1017400001960E94830566EE72E0CE0101960E942A
:10175000FF06CE0101960E945905CE0101960E9416
:1017600083056AE18FE693E00E94350160ED77E042
:1017700080E090E00E9444020E94C4036EE073E0A7
:101780008DE394E00E94810560ED77E080E090E0D9
:101790000E9444020E94C40368E672E08DE394E074
:1017A0000E9481050E940901882309F44BCF0E9401
:1017B0002B0548CF8CE094E00E94830582E194E001
:1017C0000E94830588E194E00E9483058CE191E00A
:1017D00090931F0480931E04809167039091680387
:1017E0008E51944071F4E0913104F0913204908173
:1017F000809133048095892380831092680310922E
:10180000670308952F923F924F925F926F927F925B
:101810008F929F92AF92BF92CF92DF92EF92FF9200
:101820000F931F93CF93DF93CDB7DEB7CA1BDB0BAC
:101830000FB6F894DEBF0FBECDBF09942A88398851
:1018400048885F846E847D848C849B84AA84B98458
:10185000C884DF80EE80FD800C811B81AA81B98164
:10186000CE0FD11D0FB6F894DEBF0FBECDBFED0178
:10187000089597FB072E16F4009407D077FD09D042
:101880000E944D0C07FC05D03EF4909581959F4F2A
:101890000895709561957F4F0895AA1BBB1B51E178
:1018A00007C0AA1FBB1FA617B70710F0A61BB70BD0
:1018B000881F991F5A95A9F780959095BC01CD0175
:1018C0000895EE0FFF1F0590F491E02D09940F93FA
:1018D0001F93CF93DF938230910510F482E090E064
:1018E000E0915704F091580430E020E0B0E0A0E02F
:1018F000309799F42115310509F44AC0281B390B9A
:1019000024303105D8F58A819B816115710589F1F3
:10191000FB0193838283FE0111C0408151810281CA
:10192000138148175907E0F04817590799F41097A1
:1019300061F012960C93129713961C933296CF0176
:10194000DF91CF911F910F91089500935704109349
:101950005804F4CF2115310551F04217530738F0E0
:10196000A901DB019A01BD01DF01F801C1CFEF013F
:10197000F9CF9093580480935704CDCFFE01E20F26
:10198000F31F819391932250310939832883D7CF54
:101990002091550430915604232B41F420910201EB
:1019A0003091030130935604209355042091000197
:1019B000309101012115310541F42DB73EB7409119
:1019C000040150910501241B350BE0915504F09161
:1019D0005604E217F307A0F42E1B3F0B2817390714
:1019E00078F0AC014E5F5F4F2417350748F04E0F7B
:1019F0005F1F5093560440935504819391939FCF5A
:101A0000F0E0E0E09CCFCF93DF930097E9F0FC019A
:101A1000329713821282A0915704B0915804ED01BD
:101A200030E020E01097A1F420813181820F931FD4
:101A300020915504309156042817390709F061C0E8
:101A4000F0935604E0935504DF91CF910895EA0195
:101A5000CE17DF07E8F54A815B819E0141155105EC
:101A6000B1F7E901FB83EA8349915991C40FD51F6E
:101A7000EC17FD0761F4808191810296840F951F18
:101A8000E90199838883828193819B838A83F0E033
:101A9000E0E012968D919C9113970097B9F52D91E6
:101AA0003C911197CD010296820F931F209155040E
:101AB000309156042817390739F6309751F51092AE
:101AC000580410925704B0935604A0935504BCCF09
:101AD000D383C28340815181840F951FC817D907D2
:101AE00061F44E5F5F4F88819981480F591F518380
:101AF00040838A819B81938382832115310509F07C
:101B0000B0CFF0935804E09357049ECFFD01DC0161
:101B1000C0CF13821282D7CFB0E0A0E0E2E9FDE0AF
:101B20000C94040C8C01009751F4CB010E94670CBB
:101B30008C01C801CDB7DEB7E0E10C94200CFC01AC
:101B4000E60FF71F9C0122503109E217F30708F452
:101B50009DC0D901CD91DC911197C617D70798F098
:101B6000C530D10530F3CE0104978617970708F3E7
:101B7000C61BD70B2297C193D1936D937C93CF0152
:101B80000E94030DD6CF5B01AC1ABD0A4C018C0E2E
:101B90009D1EA0915704B0915804512C412CF12C5A
:101BA000E12C109731F580915504909156048815D9
:101BB000990509F05CC04616570608F058C0809198
:101BC000000190910101009741F48DB79EB74091BB
:101BD000040150910501841B950BE817F90708F0E3
:101BE00055C0F0935604E0935504F9017183608366
:101BF000A0CF8D919C91119712966C90129713968D
:101C00007C901397A815B90559F56C0142E0C40EF4
:101C1000D11CCA14DB0420F1AC014A195B09DA01BA
:101C20001296159780F06282738251834083D901A6
:101C30006D937C93E114F10471F0D7011396FC933A
:101C4000EE93129776CF22968C0F9D1FF901918308
:101C50008083F301EFCFF0935804E093570469CFEA
:101C60004816590608F42C017D01D3019ACFCB0107
:101C70000E94670C7C01009749F0AE01B8010E94F8
:101C8000490EC8010E94030D870153CF10E000E008
:101C900050CFFB01DC0102C001900D924150504039
:101CA000D8F70895FB01DC0101900D920020E1F7C7
:101CB000089510E0C2E6D0E004C0FE010E94610C6D
:0C1CC0002196C336D107C9F7F894FFCF76
:101CCC000000590480000000000035019F00CC008A
:101CDC008201FD00DB00EF00000000008F029F007E
:101CEC0025038E02EB0203037602000000007B0446
:101CFC009F0025032403547261636B205665686949
:101D0C00636C65000D0A00244750474741004C6145
:101D1C00743A004C6F6E673A004E6F2052616E67DA
:101D2C0065202020202020004E6F2052616E6765B8
:101D3C0020202020200056656869636C6520547251
:101D4C0061636B696E670020202020537973746582
:101D5C006D2020202020200046696E64696E67206B
:101D6C004D6F64756C652E2E004154004F4B004D29
:101D7C006F64756C6520436F6E6E65637465642E5D
:101D8C002E0044697361626C696E67204543484F4D
:101D9C000041544530004563686F204F464600466D
:101DAC00696E64696E67204E6574776F726B2E2E48
:101DBC000041542B4350494E3F002B4350494E3A5F
:101DCC00205245414459004E6574776F726B204622
:101DDC006F756E642E2E0041542B434E4D493D328F
:101DEC002C322C302C302C300047505320496E694B
:101DFC007469616C697A696E670020204E6F2047A8
:101E0C0050532052616E676520200047505320527A
:101E1C00616E676520466F756E640047505320698C
:101E2C00732052656164790053797374656D205227
:101E3C00656164790041542B434D47463D31004167
:101E4C00542B434D47533D222B39312A2A2A2A2A17
:101E5C002A2A2A2A2A220056656869636C6520544E
:101E6C007261636B696E6720416C6572743A0059DC
:101E7C006F75722056656869636C65204375727264
:101E8C00656E74204C6F636174696F6E2069733A70
:101E9C00004C617469747564653A004C6F6E6769C7
:101EAC00747564653A00506C656173652074616B80
:101EBC006520736F6D6520616374696F6E20736F3D
:101ECC006F6E2E2E0A5468616E6B796F75004D65BE
:0C1EDC0073736167652053656E7400002D
:00000001FF
